:1000000080313028FF3FFF3F7E1480310B1F2E28A8
:100010002100931C12282000931C12288D31842566
:1000200080312E282100131C1C282000131C1C28A2
:100030008D31882580312E282100911D2628200011
:10004000911D26289531B62580312E282100131EBA
:100050002E282000131E2E288731D4277E10090059
:100060008031322821005530DA0020308400003001
:1000700085002C309231C5228031A03084000030C0
:1000800085002A309231C52280317E102000482818
:10009000B02080318B170B176C208E150E168E1624
:1000A0000E178E179231CB2280319231CE228031C1
:1000B0006920803132009817981621004803031DEB
:1000C0005D28AB208831912080312100C801630078
:1000D0005D2822008D1608002000C901C801C60154
:1000E0002100C9012000CA012100C7012000AC0184
:1000F000AD01AE01AF01A801A901AA01AB01A401A4
:10010000A501A601A701A001A101A201A301C501AA
:10011000C401C301C201C101C0012100C101C0016C
:100120002000B9012100BF01BE01BD012000B801BE
:100130002100BC01BB012000B70101302100C50036
:10014000C401C3012000BF01FA302100A600A701AD
:10015000A401A50108008931BA2180319331492BCE
:100160005B218031252180311C2180317221803139
:10017000F82080310B2192319D228031692192310A
:100180000C228031C9208031E02092318D229231C1
:100190007D2A02303E009100183092000230930018
:1001A00006309400023095009600143097009801B4
:1001B00099019D30900020001310210013140800B5
:1001C00002303E009B0018309C0003309D00073039
:1001D0009E0003309F000230A0001430A100A20155
:1001E000A3019D309A002000931021009314080071
:1001F0002000CB010C1C4B148C1CCB140C1D4B157C
:100200008C1DCB150C1E4B168C1ECB160D1E4B17C2
:100210004B35CB0008002400940126309500960150
:100220009701FE30930020004B082400920020002C
:1002300091112100911508006030320099009B0156
:100240009D0107309F009E01080022008C018D0156
:100250008E01373021008C00D0308D00FF308E00B1
:1002600023008E0120308D008C01103024008D0081
:100270003F308C008E0125008C0120308D008E01D6
:100280003C002008E0390E38A0002108E0390F3882
:10029000A1002A08E0391038AA002B08E0391138EB
:1002A000AB003D001F08E03919389F001E08E039F7
:1002B00018389E000800403032009100F230920061
:1002C00066309300E03094002030950001309600B5
:1002D0000800483098000130960095019012853052
:1002E000970008001630210097000800F43403340A
:1002F000EA340334DF340334D5340334CB340334E9
:10030000C1340334B6340334AC340334A23403347C
:10031000983403348E34033483340334793403340F
:100320006F340334653403345A34033450340334A3
:10033000463403343C340334323403342734033436
:100340001D3403341334033409340334FE340234CB
:10035000F4340234EA340234E0340234D634023461
:10036000CB340234C1340234B7340234AD340234F5
:10037000A3340234983402348E3402348434023488
:100380007A3402346F340234653402345B3402341C
:1003900051340234473402343C34023432340234AF
:1003A000283402341E340234133402340934023443
:1003B000FF340134F5340134EB340134E0340134DA
:1003C000D6340134CC340134C2340134B73401346E
:1003D000AD340134A3340134993401348F34013401
:1003E000843401347A340134703401346634013495
:1003F0005B34013451340134473401343D34013429
:1004000033340134283401341E34013414340134BB
:100410000A340134FF340034F5340034EB34003452
:10042000E1340034D7340034CC340034C2340034E6
:10043000B8340034AE340034A43400349934003479
:100440008F340034853400347B340034703400340D
:10045000663400345C3400345234003448340034A0
:100460003D34003433340034293400341F34003434
:10047000143400340A34003400340034FE340334BD
:10048000FD340334FC340334FB340334F9340334D3
:10049000F8340334F5340334F3340334F1340334DF
:1004A000EE340334EB340334E8340334E4340334FB
:1004B000E0340334DC340334D8340334D434033428
:1004C000CF340334CB340334C6340334C034033460
:1004D000BB340334B5340334B0340334AA340334A6
:1004E000A43403349D3403349734033490340334F8
:1004F00089340334823403347B3403347334033457
:100500006B340334643403345C34033453340334C1
:100510004B340334423403343A3403343134033437
:10052000283403341E340334153403340B340334B9
:1005300001340334F7340234ED340234E33402344A
:10054000D9340234CE340234C3340234B8340234E1
:10055000AD340234A2340234963402348A34023484
:100560007F34023473340234673402345A34023430
:100570004E340234413402343434023427340234E9
:100580001A3402340D34023400340234F2340134AB
:10059000E4340134D6340134C8340134BA3401347B
:1005A000AC3401349D3401348E3401348034013450
:1005B0007134013461340134523401344334013430
:1005C000333401342334013413340134033401341B
:1005D000F3340034E3340034D2340034C134003412
:1005E000B1340034A03400348E3400347D3400340F
:1005F0006C3400345A340034483400343734003416
:10060000243400341234003400340034FE34033413
:10061000FE340334FD340334FC340334FB3403343C
:10062000FA340334F9340334F7340334F63403343E
:10063000F4340334F2340334EF340334ED3403344C
:10064000EA340334E7340334E4340334E034033469
:10065000DD340334D9340334D5340334D134033492
:10066000CD340334C8340334C3340334BE340334C8
:10067000B9340334B3340334AE340334A83403340C
:10068000A23403349C340334953403348F3403345C
:1006900088340334813403347A34033472340334B9
:1006A0006A340334633403345A3403345234033425
:1006B0004A34033441340334383403342F3403349C
:1006C000263403341C340334133403340934033420
:1006D000FE340234F4340234EA340234DF340234B7
:1006E000D4340234C9340234BE340234B234023455
:1006F000A63402349A3402348E3402348234023402
:1007000075340234683402345B3402344E340234BB
:100710004134023433340234253402341734023481
:1007200009340234FB340134EC340134DD34013457
:10073000CE340134BF340134B0340134A034013438
:100740009034013480340134703401345F34013426
:100750004F3401343E3401342D3401341C3401341F
:100760000A340134F8340034E7340034D43400342B
:10077000C2340034B03400349D3400348A34003440
:100780007734003464340034503400343C34003462
:10079000283400341434003400340034FE3403347C
:1007A000FE340334FE340334FD340334FD340334A7
:1007B000FC340334FB340334FA340334F9340334A3
:1007C000F8340334F6340334F4340334F3340334A8
:1007D000F0340334EE340334EC340334E9340334BA
:1007E000E7340334E4340334E0340334DD340334D5
:1007F000D9340334D6340334D2340334CE340334FE
:10080000C9340334C5340334C0340334BB34033433
:10081000B6340334B0340334AB340334A534033476
:100820009F34033499340334923403348B340334C7
:10083000843403347D340334763403346E34033427
:10084000663403345E340334563403344E34033494
:10085000453403343C34033433340334293403340F
:1008600020340334163403340C3403340134033499
:10087000F7340234EC340234E1340234D534023437
:10088000CA340234BE340234B2340234A6340234E0
:10089000993402348C3402347F340234723402349A
:1008A0006434023457340234493402343A34023462
:1008B0002C3402341D3402340E340234FF3401343B
:1008C000EF340134DF340134CF340134BF34013428
:1008D000AE3401349E3401348C3401347B34013421
:1008E0006A34013458340134463401343334013429
:1008F000213401340E340134FB340034E734003445
:10090000D3340034BF340034AB3400349734003473
:10091000823400346D3400345834003442340034AE
:100920002C3400341634003400340034FE340334E4
:10093000FE340334FE340334FE340334FD34033414
:10094000FD340334FC340334FC340334FB3403340B
:10095000FA340334F9340334F8340334F63403340A
:10096000F5340334F3340334F1340334EF34033413
:10097000ED340334EB340334E9340334E634033424
:10098000E3340334E0340334DD340334D934033442
:10099000D6340334D2340334CE340334CA3403346B
:1009A000C5340334C1340334BC340334B7340334A2
:1009B000B1340334AC340334A6340334A0340334E8
:1009C0009A340334933403348D340334863403343B
:1009D0007F3403347734033470340334683403349D
:1009E0005F340334573403344E3403344634033411
:1009F0003C34033433340334293403341F34033494
:100A0000153403340B34033400340334F534023426
:100A1000EA340234DE340234D2340234C6340234CE
:100A2000BA340234AD340234A03402349334023484
:100A30008534023477340234693402345B3402344E
:100A40004C3402343D3402342D3402341E3402342A
:100A50000E340234FE340134ED340134DC3401341C
:100A6000CB340134BA340134A8340134963401341F
:100A700083340134713401345D3401344A34013437
:100A800036340134223401340E340134F934003464
:100A9000E4340034CF340034B9340034A3340034A7
:100AA0008D340034763400345F34003448340034FC
:100AB000303400341834003400340034FE3403344D
:100AC000FE340334FE340334FE340334FE34033482
:100AD000FD340334FD340334FD340334FC34033477
:100AE000FB340334FB340334FA340334F934033471
:100AF000F8340334F7340334F5340334F434033472
:100B0000F2340334F0340334EE340334EC3403347D
:100B1000EA340334E8340334E5340334E234033490
:100B2000DF340334DC340334D9340334D5340334B0
:100B3000D1340334CD340334C9340334C5340334DD
:100B4000C0340334BB340334B6340334B134033417
:100B5000AB340334A6340334A0340334993403345F
:100B6000933403348C340334853403347E340334B7
:100B7000763403346E340334663403345E34033421
:100B8000553403344D340334433403343A3403349A
:100B900030340334263403341C3403341134033426
:100BA00006340334FB340234EF340234E3340234C9
:100BB000D7340234CB340234BE340234B13402347C
:100BC000A334023495340234873402347934023445
:100BD0006A3402345B3402344B3402343B34023422
:100BE0002B3402341A34023409340234F834013418
:100BF000E6340134D4340134C2340134AF34013426
:100C00009C34013488340134753401346034013447
:100C10004C34013436340134213401340B34013482
:100C2000F5340034DE340034C7340034B0340034DA
:100C30009834003480340034673400344E34003447
:100C4000343400341A34003400340034FE340334B5
:100C5000FE340334FE340334FE340334FE340334F0
:100C6000FE340334FD340334FD340334FD340334E3
:100C7000FC340334FC340334FB340334FB340334DA
:100C8000FA340334F9340334F8340334F7340334D6
:100C9000F6340334F4340334F3340334F1340334DA
:100CA000EF340334ED340334EB340334E9340334E8
:100CB000E6340334E4340334E1340334DE340334FF
:100CC000DB340334D8340334D4340334D034033421
:100CD000CC340334C8340334C4340334BF34033451
:100CE000BA340334B5340334AF340334AA34033490
:100CF000A43403349E3403349734033491340334DE
:100D00008A340334833403347B340334733403343C
:100D10006B340334633403345A34033451340334AE
:100D2000483403343E340334343403342A34033433
:100D300020340334153403340A340334FE340234CB
:100D4000F2340234E6340234D9340234CC3402347E
:100D5000BF340234B1340234A33402349434023444
:100D60008634023476340234673402345734023421
:100D7000463402343534023424340234123402341A
:100D800000340234EE340134DB340134C73401342E
:100D9000B43401349F3401348B340134763401345B
:100DA000603401344A340134333401341D340134A5
:100DB00005340134ED340034D5340034BC3400340F
:100DC000A3340034893400346E3400345434003495
:100DD000383400341C3400340034003426009701C9
:100DE00055303C008F00AA308F000F10E0303D00DE
:100DF000A60555303C008F00AA308F000F14302F0D
:100E000023000E1322000E1721000E1355303C0054
:100E10008F00AA308F000F103D002608E0390F38F0
:100E2000A60055303C008F00AA308F000F145D27BC
:100E3000863100306A2786314A2F23000E132100A5
:100E40000E1325000E134A2F21000E1723000E1734
:100E5000320093124A2F23000E1321000E174A2F3F
:100E6000200047080339CC00CD014D08003A031992
:100E70003A2F4A2F4C0884000430040203184A2FEA
:100E800092310435B53E820024000E130800240080
:100E90000E170800200047080439CC00CD014D088A
:100EA000003A0319542F5C2F4C08003A0319442FC1
:100EB000043A0319472F5C2F08008F302600970053
:100EC00003309600FF30950025001F083F39403859
:100ED0009F000800FC007C08031D822F22000E17D3
:100EE00055303C008F00AA308F000F10E0303D00DD
:100EF000A60555303C008F00AA308F000F14260045
:100F00009701080026001708031D9A2F55303C0052
:100F10008F00AA308F000F103D002608E0390F38EF
:100F2000A60055303C008F00AA308F000F148F3080
:100F30002600970020003D08031DAB2F7C09F6001A
:100F4000F701F635F70DF635F70D76082600950012
:100F500077089600080065307C02031CB12F6430CE
:100F6000FC007C08F600F701F635F70D3D08F000AF
:100F7000C830F101F200F3018D314E25AC30F8009C
:100F80008030F90070087807FA007108793DFB009D
:100F90007A08760784007B08773D8500003F2600AD
:100FA0009500013F96000800ED27873120001312BD
:100FB00021002908F1002808F000DE2F2800131D69
:100FC000E82F1310710892007008910013140800A4
:100FD000710892007008910008002100C801C80A39
:100FE00008009331592B9331632B93316B2B933141
:100FF000732B9331822B9331922B9331A02BFF3F94
:10100000FF3FF10031009518022815177108910073
:101010007030920094017008930003108B1B03142E
:101020008B13151555309600AA3096009514951817
:101030001728151103188B1708002100D600560831
:10104000031D362822008E1555303C008F00AA3033
:101050008F000F10E0303D00A30555303C008F009D
:10106000AA308F000F1426009301080026001308F1
:10107000031D512855303C008F00AA308F000F10FF
:101080003D002308E0390E38A30055303C008F00A6
:10109000AA308F000F148F3026009300FF3092008B
:1010A000910020003A08031D652821005609D00050
:1010B000D101D035D10DD035D10D50082600910089
:1010C00021005108260092000800653021005602D8
:1010D000031C6C286430D6005608D000D101D035EE
:1010E000D10D20003A082100CA00C830CB01CC0045
:1010F000CD018A31C722AC30D2008030D3004A08FB
:101100005207D4004B08533DD500540850078400C3
:101110005508513D8500003F26009100013F920097
:101120000800DC22943175248831953114258831EA
:1011300021002E08AE0AD90020003F0821005902E4
:101140000318AE013208B20AD9000B305902031C51
:101150000800B201AF208831FA2088314729EF28F2
:101160000330200048052100CE00023A031DBB28B1
:10117000B101B10AB2290330200048052100CE0098
:10118000033A031D080002302100B10008001730A7
:1011900097214A08CE004B08CF00CF36CE0CCF3671
:1011A000CE0C4E082000C200080020008E1F080050
:1011B0000130C200BE228831C81DDF28B5220330AD
:1011C0002100B100080020008E1B0800C20102307F
:1011D000BE228831481EC328B5228831C328310871
:1011E0008400043004020318080090310435F43EF2
:1011F000820008003B290330200047052100CE0073
:10120000023A031D0629B001B00AB22903302000BA
:1012100047052100CE00033A031D080002302100DB
:10122000B0000800163097214A08CE004B08CF00C6
:10123000CF36CE0CCF36CE0C4E082000C1000800B1
:1012400020000E1F08000130C1000430BE2288318A
:10125000C71D2B29B52203302100B0000800200053
:101260000E1B0800C1010830BE228831471E0E291E
:10127000B52288310E292100300884000430040290
:101280000318080090310435EC3E8200080020006D
:10129000390B8B2908000330200046052100CE00C1
:1012A000023A031D5629AF01AF0AB22903302000CC
:1012B00046052100CE00033A031D0800023021003C
:1012C000AF000800153097214A08CE004B08CF0028
:1012D000CF36CE0CCF36CE0C4E082000C000080012
:1012E00020008E1E08000130C0001030BE22883160
:1012F000C61D7B29B52203302100AF000800200065
:101300008E1A0800C0012030BE228831461E5E2998
:10131000B52288315E2921002F08840004300402A0
:101320000318080090310435E43E820008002100D3
:10133000CD00CC00CC0DCC0D1D084C0603394C065D
:101340009D001D140D30890BA329000021009D1460
:101350009D18A8291C08CB00CA011B08CA0703183E
:10136000CB0A080001309D00E0309E009F019B01E8
:101370009C010800200039080319080021004308D7
:10138000031DDE292000330845060319CC29450832
:10139000B3009531422588312000320844060319F4
:1013A000D5294408B2004222883120003108430682
:1013B000031908004308B10088311D28AB0A43080F
:1013C0002B02031C0800AB0120003308450603195B
:1013D000012A450833020318EE29B30A33084502EF
:1013E000031CB303330895314225883120003308AC
:1013F00045060130031DFF2936228831012A3E228D
:10140000883120003208440603191D2A440832029C
:1014100003180B2AB20A32084402031CB203320832
:10142000422288312000320844060230031D1B2A64
:10143000362288311D2A3E22883120003108430699
:101440000319080043083102031CB10A31084302A2
:10145000031CB103310888311D2088312000310878
:1014600043060430031D352A362A3E2A2100CC00CB
:101470004C09C6054030BE228831B52A2100CA0079
:10148000C60408002100D6005608031D5B2A22006E
:101490000E1655303C008F00AA308F000F10E03040
:1014A0003D00A40555303C008F00AA308F000F147A
:1014B00025009701080025001708031D762A5530DE
:1014C0003C008F00AA308F000F103D002408E03947
:1014D0000D38A40055303C008F00AA308F000F1447
:1014E0008F3025009700FF309600950020003B08C4
:1014F000031D8A2A21005609D000D101D035D10D13
:10150000D035D10D50082500950021005108250047
:1015100096000800653021005602031C912A6430B1
:10152000D6005608D000D101D035D10D20003B089F
:101530002100CA00C830CB01CC00CD01C722AC309D
:10154000D2008030D3004A085207D4004B08533DE4
:10155000D5005408500784005508513D8500003FD0
:1015600025009500013F9600080020004A08210050
:1015700049050319080022008D1208002100CB0044
:10158000C7048030C32ACA002000CA040800CE0164
:10159000CF014A1CCF2A4C08CE074D08CF3DCC3591
:1015A000CD0DCB36CA0C4A084B04031DC92A4F087F
:1015B000CB004E08CA000800200048080339031D6C
:1015C00008003F08031DEC2A3608420603190800EC
:1015D0004208B6009331DE2B3F0821002E02031C87
:1015E00008002000360842060319080042083602A7
:1015F000031CB60A36084202031CB60336089331B0
:10160000DE2388312000360842060830031D092BEE
:10161000362A3E2A2000D000D72B4F08C90091312E
:10162000C4218B31F7238B31E12B4F08C8004624AE
:101630008B31E12B4F08C7008631EE268B31E12B31
:101640003908031DE12B4F08C600973101278B3164
:10165000E12B4F082100C900E12B4F08AF00E12B1F
:101660004F08AE00E12B4F08AD00E12B4F08AC0056
:10167000E12B4F08AB00E12B4F08AA00E12B4F08EC
:10168000A900E12B4F08A800E12B4F08A700E12B90
:101690004F08A600E12B4F08A500E12B4F08A4003E
:1016A000E12B4F08A300E12B4F08A200E12B4F08CC
:1016B000A100E12B4F08A000E12B4F08C500E12B52
:1016C0004F08C400E12B4F08C300E12B4F08C200B4
:1016D00092315B228B31E12B4F08C10092314A22BB
:1016E0008B31E12B3908031DE12B4F08C0009231EB
:1016F00022228B31E12B21004508031D812B013073
:10170000C50020004F082100C500450842248B3148
:10171000E12B4F082100C4004408F0000A30F10119
:10172000F200F3014E258B3171082100A5007008ED
:10173000A400E12B4F082100C300E12B4F08BF009C
:10174000E12B4F08BC0009303C02031CE12B0830A0
:10175000BC00E12B4F08BB0009303B02031CE12B0E
:101760000830BB00E12B4F08BA0009303A02031CD5
:10177000E12B0830BA00E12B4F08BE0009303E02D1
:10178000031CE12B0830BE00E12B4F08BD000930DF
:101790003D02031CE12B0830BD00E12BA12B4F08BB
:1017A0002100C2007A258B313A248B31E12B50087D
:1017B0008400313004020318E12B91310435003EDE
:1017C0008200803020005002031C080021004008E5
:1017D000031DF12B20004F08F0005008803E883197
:1017E000012820004F08F00050088831012820000F
:1017F0003903031DFF2B9631C9268B31012C63253C
:101800008B3121003D0B0C2C0430BA000830B9009C
:101810000B30B8000730132C0830BA000430B90080
:101820000730B8000B30B7003E0B192C24008D1286
:101830001B2C24008D1622008D1621003F08031D4D
:10184000242CFF30B700B8003C08031D2E2C0130BB
:101850002000A000A101A201A301352C3F302000EF
:10186000A3008030A200A101A0012100410B0800CB
:101870000100080021003B0B3F2C9231362A9231A7
:101880006C220800F0002000960008002C0099014E
:1018900055303C008F00AA308F000F10E0303D0023
:1018A000A70555303C008F00AA308F000F14882CFC
:1018B00023008E1322008E1721008E1355303C001A
:1018C0008F00AA308F000F103D002708E039023842
:1018D000A70055303C008F00AA308F000F14B524AC
:1018E0008B310030BF248B31A22C23008E132100BA
:1018F0008E1325008E13A22C21008E1723008E1725
:1019000032009312A22C23008E1321008E17A22CDA
:10191000200048080339CD00CE014E08003A0319D3
:10192000922CA22C4D088400043004020318A22C2F
:1019300092310435BD3E820024008E13080024003D
:101940008E170800200048080439CD00CE014E084B
:10195000003A0319AC2CB42C4D08003A03199C2C06
:10196000043A03199F2CB42C080080302C009900F5
:10197000980197011F08FC3901389F0008002000DA
:10198000CC004C08031DD82C22008E1755303C008B
:101990008F00AA308F000F10E0303D00A7055530B2
:1019A0003C008F00AA308F000F142C009901080012
:1019B0002C001908031DF02C55303C008F00AA3074
:1019C0008F000F103D002708E0390238A70055307E
:1019D0003C008F00AA308F000F1480302C0099003B
:1019E00020003E08031DF92C4C092C00980097019B
:1019F000080065304C02031CFF2C6430CC004C08FE
:101A0000F600F701F635F70D3E08F000C830F10199
:101A1000F200F3014E258B31AC30F8008030F90034
:101A200070087807FA007108793DFB007A0876079C
:101A300084007B08773D8500003FFC00013FFD00EE
:101A4000FD36FC0CFD36FC0C7C082C0098002000B8
:101A50004C08F600F701F635F70D3E08F000C830E7
:101A6000F101F200F3014E25AC30F8008030F900AE
:101A700070087807FA007108793DFB007A0876074C
:101A800084007B08773D850000080339FC00FC0CCE
:101A9000FC0C7C0CC0392C0097000800F401F50107
:101AA000701C562D7208F4077308F53DF235F30DDE
:101AB000F136F00C70087104031D502D7508F1000B
:101AC0007408F000080023000E1224000E162100F6
:101AD0000E1623008E1125008E1121008E1122007A
:101AE0008E11250097012600930123000E1121007D
:101AF0000E1508004208BB000130BB05423620002D
:101B0000B7000130B70508008C25200093100800AD
:101B10008C25200013100800300809070907B000C1
:101B20000E080339B0040F30B005300821003A0622
:101B30000319A02D2000300821003806031D062EB1
:101B40003C08031DCD2D20002C082007DC002D08AB
:101B5000213DDD002E08223DDE002F08233DDF0061
:101B6000AF005E08AE005D08AD005C08AC00083058
:101B700088268D312B08803ADC002F08803A5C02E1
:101B8000031DFE2D2E082A02031DFE2D2D082902FD
:101B9000031DFE2D2C082802FE2D20002308F30033
:101BA0002208F2002108F1002008F0002F08F700B9
:101BB0002E08F6002D08F5002C08F4008B268D3138
:101BC00073082000AF007208AE007108AD00700805
:101BD000AC00083088262B08F3002A08F2002908F8
:101BE000F1002808F0002F08F7002E08F6002D0855
:101BF000F5002C08F400913162218D310318862EF6
:101C0000203088268D31380B762E7E2E200030082D
:101C1000210039060319122E200030082100370652
:101C2000031D862E3C08031D3F2E200020082C0299
:101C3000DC0021082D3BDD0022082E3BDE002308BE
:101C40002F3BDF00AF005E08AE005D08AD005C0812
:101C5000AC00103088268D312F08803ADC00270830
:101C6000803A5C02031D6F2E26082E02031D6F2E84
:101C700025082D02031D6F2E24082C026F2E200034
:101C80002308D7002208D6002108D5002008D40058
:101C90002F08DB002E08DA002D08D9002C08D80008
:101CA000DA278D315708AF005608AE005508AD0051
:101CB0005408AC00103088262F08F3002E08F200DC
:101CC0002D08F1002C08F0002708F7002608F60080
:101CD0002508F5002408F400913162218D310318A4
:101CE000862E403088268D31380B7E2E2B08AF0093
:101CF0002A08AE002908AD002808852E2708AF0065
:101D00002608AE002508AD002408AC00F72708001F
:101D1000F000CA0408007308F8008030F805733535
:101D2000FA00F21B7A147A0803199E2E7A0F9C2E61
:101D3000F001F101F201F301F217A12EF001F1011E
:101D4000F201F3017708F9008030F9057908780687
:101D5000031D78177735F900F61B791479080319F4
:101D6000B92E790FB72EF401F501F601F701F61738
:101D7000BC2EF401F501F601F7017A087902031887
:101D8000E32E781FC52E8030F8067A08FB0079080C
:101D9000FA007B08F9007008FB007408F0007B086B
:101DA000F4007108FB007508F1007B08F50072086B
:101DB000FB007608F2007B08F6007308FB0077084A
:101DC000F3007B08F700FB017908CC00CD014D083A
:101DD000CF007A084C02CE00031CCF034F08803A94
:101DE000D00080305002031DF72E1A304E02031C23
:101DF000182F73087204710470040319012F013045
:101E0000022F0030FB00F001F101F201F30179082B
:101E1000FA001C2F7B1C102F7B360138FB00112F82
:101E2000FB367018FB17F337F20CF10CF00CFA0AC2
:101E300079087A02031C0A2F781B3F2F7A08031DAA
:101E4000262FF001F101F201F30108007408F007F8
:101E50007508F13D7608F23D7708F33D731CA82F15
:101E60007B1C362F7B360138FB00372FFB36701872
:101E7000FB17F337F20CF10CF00CFA0AA82F7308D9
:101E8000803A2000CC007708803A4C02031D522F84
:101E900076087202031D522F75087102031D522F1E
:101EA000740870020318812FFF30CC00CD00CE00E3
:101EB000CF0070087402D0007108753BD100720821
:101EC000763BD2007308773BD3005008CC0751080B
:101ED000CD3D5208CE3D5308CF3D4F08F3004E088C
:101EE000F2004D08F1004C08F0008030F806FB09C4
:101EF000FB0F892F0130F0070030F13DF23DF33D3B
:101F0000892F7408F0027508F13B7608F23B7708D8
:101F1000F33B7308720471047004031DA62F7B0841
:101F2000031DA62FF001F101F201F3010800F035C5
:101F3000F10DF20DF30DFB1B70147B1CA22F03148B
:101F4000FB0DA32FFB357A08031DFA03F21F972F11
:101F5000F901FB1FB32F7B087F3903197018B12FCC
:101F6000B32FF901F90A79080319C42F0130F007DA
:101F70000030F13DF23DF33D731CC42FF337F20CFA
:101F8000F10CF00C7A0FFA0A7A0A031D7A08031D85
:101F9000D02FF001F101F201F3017A080319F801E1
:101FA0007A1CD42FF217D52FF2137A36F300F81BD0
:101FB000F31708008030D7065B08F3005A08F200D8
:101FC0005908F1005808F0005708F7005608F600C5
:101FD0005508F5005408F4008B2673082000D7003C
:101FE0007208D6007108D5007008D40008002000DF
:101FF0004A08210049050319080022008D12080033
:102000009631072E96310A2E96310D2E9631102ECE
:102010009631182E96311A2E9631212E9631252E74
:102020009631272E96312D2E9631352E96313E2E15
:102030009631482E96314B2E96314E2E9631512E9A
:102040009631542E9631572E96315A2E96315D2E5A
:102050009631602E9631632E9631662E9631692E1A
:1020600096316C2E96316F2E9631722E9631752EDA
:102070009631782E96317B2E9631812E9631832E95
:102080009631852E9631872E9631162E9631162E44
:102090009631162E9631162E9631162E96318A2EA0
:1020A00096318D2E9631902E9631932E9631962E16
:1020B00096318A2E9631162E9631162E9631162E80
:1020C0009631992E9631162E9631162E9631162E61
:1020D0009631162E9631162E9631162E9631162ED4
:1020E0009631162E9631162E9631162E9631162EC4
:1020F0009631162E9631162E9631162E9631162EB4
:102100009631162E9631162E9631162E9631162EA3
:102110009631162E9631162E9631162E9631162E93
:102120009631162E9631162E9631162E9631162E83
:102130009631162E9631162E9631162E9631162E73
:102140009631162E9631162E9631162E9631162E63
:102150009631162E9631162E9631162E9631162E53
:102160009631162E9631162E9631162E9631162E43
:102170009631162E9631162E9631162E9631162E33
:102180009631162E9631162E9631162E9631162E23
:102190009631162E9631162E9631162E9631162E13
:1021A0009631162E9631162E9631162E9631162E03
:1021B0009631162E9631162E9631162E9631162EF3
:1021C00096319B2E96319D2E89314B29893162297A
:1021D0008931702989317F298831FB288931122979
:1021E0008931202989312F298831B0288831C728A1
:1021F0008831D5288831E328FF3FFF3FFF3FFF3F6D
:102200008B310D2B8B31152B8B311A2B8B31202BD6
:102210008B31292B8B31E12B8B31E12B8B31E12B56
:102220008B312D2B8B31302B8B31332B8B31362B4C
:102230008B31392B8B313C2B8B313F2B8B31422B0C
:102240008B31452B8B31482B8B314B2B8B314E2BCC
:102250008B31512B8B31542B8B31572B8B315A2B8C
:102260008B315D2B8B31602B8B31632B8B31662B4C
:102270008B316C2B8B31722B8B317B2B8B31892BE0
:102280008B319A2B8B319E2B8B31E12B8B31E12BB8
:102290008B31E12B8B31E12B8B31E12B8B31A12B5E
:1022A0008B31AA2B8B31B32B8B31BC2B8B31C52BB4
:1022B0008B31CE2B8B31E12B8B31E12B8B31E12B11
:1022C0008B31CF2B8030F801F9017205FA007F3095
:1022D0007305FB007A0479047804031D7329F00167
:1022E000F101F201F3018030F801F9017605FA00FD
:1022F0007F307705FB007A0479047804031D842974
:10230000F401F501F601F701F31F9B298030F80174
:10231000F901FA01FB007008F8027108F93B720834
:10232000FA3B7308FB3B7B08F3007A08F20079085C
:10233000F1007808F000F71FB2298030F801F901A8
:10234000FA01FB007408F8027508F93B7608FA3BBD
:102350007708FB3B7B08F7007A08F6007908F50060
:102360007808F4008030F306F70677087302031D3F
:10237000080076087202031D080075087102031D2B
:10238000080074087002080049082100BC000130F0
:10239000BC0520004936B8000130B8054908F000F6
:1023A000F036F03670082100BD000130BD05200078
:1023B0004908F000F036F036F03670082100BE0013
:1023C0000130BE052000490E0F392100BF00013049
:1023D000BF0520004908F0000530F036890BED29D3
:1023E0007008B9000130B9054908F0000630F03630
:1023F000890BF72970082100C0000130C0052000BA
:102400004908F0000730F036890B032A70082100D4
:10241000C1000130C105080028009401E03092009D
:10242000C030910012082100A900A801280011085D
:102430002100A804200013122100131601302800E7
:1024400093000800390B252A080003304605F000E8
:10245000700B08004008031D302A22008E1208006D
:1024600022008E1601302000C000080024009501D3
:102470009601940126309500013096009701FE30B8
:10248000930020004B0824009200200091112100AD
:102490009115080003304705F000700B0800410853
:1024A000031D552A22000E13080022000E170130CA
:1024B0002000C100080003304805F000700B080040
:1024C0004208031D662A22008E13080022008E1780
:1024D00001302000C200080024009401263095003D
:1024E00096019701FE30930020004B0824009200D3
:1024F00020009111210091150800AF011830B000A3
:102500000330B100B200B3000230B4000830B500AF
:10251000B601B7018530AE0008003E00A5011830B5
:10252000A6000230A700A800A900AA000830AB004E
:10253000AC01AD018530A4000800FF3020009E00F2
:102540009D01911004309F0008009531D52D9531E3
:10255000F22D9531E72D9631042E9731132F9731B7
:10256000302F9731372F97313E2F8731002F87310A
:102570001D2F8731242F87312B2F8C31582C8C31F4
:10258000752C8C317C2C8C31832C640080010131C2
:10259000890BC62A0034280013140800200097175E
:1025A0000800FF3FFF3FFF3FFF3FFF3FFF3FFF3F71
:10269000FF3F210023082502031D502B220824029E
:1026A0000318552B0530AD00AA2BA20A0319A30A63
:1026B000AA2BA201A301B5239331013A031D0800FF
:1026C000AD01AD0A0800B5239331003A031D08009F
:1026D0000230AD000800B5239331013A031D080014
:1026E0000330AD000800B5239331003A031D080004
:1026F0000430A201A301A001A101AD008A31C322CF
:102700008A31B52AA201A30121082502031D8A2BC3
:102710002008240203188E2BAD010800A00A03191B
:10272000A10A08000230A201A3018A31C322933119
:10273000B5239331013A031DA72B0630AD00802B42
:10274000A201A301B5239331003A031D0800013013
:10275000AD017E2B2D088400073004020318080009
:1027600087310435F13E82000800D1239331013ACC
:10277000031DC62B21002C08AC0A803A4E3E031CD8
:10278000CF2B3230AC00AA01AA0ACF2B21002C0893
:10279000AC03803A7F3E0318CF2BAC01AA012A0874
:1027A00008002000390BD82B0E0C890C01390800C9
:1027B00003100E1E03140030093D08002100D8004C
:1027C0005808031DF72B22008E1755303C008F0050
:1027D000AA308F000F10E0303D00A70555303C00B7
:1027E0008F00AA308F000F142C00990108002C00D4
:1027F0001908031D0F2C55303C008F00AA308F00A4
:102800000F103D002708E0390238A70055303C0082
:102810008F00AA308F000F1480302C009900200008
:102820003E08031D192C210058092C00980097011F
:102830000800653021005802031C202C6430D800A9
:102840005808D000D101D035D10D20003E0821001C
:10285000CA00C830CB01CC00CD018A31C7229331E8
:10286000AC30D2008030D3004A085207D4004B0865
:10287000533DD5005408500784005508513D85004C
:10288000003FD600013FD700D736D60CD736D60C3E
:1028900056082C00980021005808D000D101D035EE
:1028A000D10D20003E082100CA00C830CB01CC0069
:1028B000CD018A31C722AC30D2008030D3004A0823
:1028C0005207D4004B08533DD500540850078400EC
:1028D0005508513D850000080339D600D60CD60CAA
:1028E000560CC0392C009700080020004708033917
:1028F000031D08003F08031D842C350841060319F9
:1029000008004108B500A32C3F0821002E02031C3B
:102910000800200035084106031908004108350267
:10292000031CB50A35084102031CB5033508A3246E
:1029300094312000350841061030031DA12C8A3146
:10294000362A8A313E2A2100D6005608031DBC2CA7
:1029500022000E1755303C008F00AA308F000F1058
:10296000E0303D00A60555303C008F00AA308F00B6
:102970000F1426009701080026001708031DD42C09
:1029800055303C008F00AA308F000F103D00260804
:10299000E0390F38A60055303C008F00AA308F0078
:1029A0000F148F302600970020003D08031DE82CEF
:1029B00021005609D000D101D035D10DD035D10D2F
:1029C00050082600950021005108260096000800B6
:1029D000653021005602031CEF2C6430D6005608E7
:1029E000D000D101D035D10D20003D082100CA0012
:1029F000C830CB01CC00CD018A31C722AC30D20027
:102A00008030D3004A085207D4004B08533DD5000C
:102A10005408500784005508513D8500003F2600AA
:102A20009500013F96000800200046080339031D69
:102A300008003F08031D232D340840060319080031
:102A40004008B400422D3F0821002E02031C08005C
:102A50002000340840060319080040083402031C13
:102A6000B40A34084002031CB403340842259531EB
:102A70002000340840062030031D402D8A31362ABC
:102A80008A313E2A2100D6005608031D5B2D220004
:102A90008E1655303C008F00AA308F000F10E030AA
:102AA0003D00A50555303C008F00AA308F000F1463
:102AB00025009301080025001308031D762D5530CD
:102AC0003C008F00AA308F000F103D002508E03930
:102AD0000C38A50055303C008F00AA308F000F1431
:102AE0008F3025009300FF309200910020003C08B9
:102AF000031D8A2D21005609D000D101D035D10DFA
:102B0000D035D10D50082500910021005108250035
:102B100092000800653021005602031C912D64309C
:102B2000D6005608D000D101D035D10D20003C0888
:102B30002100CA00C830CB01CC00CD018A31C722A8
:102B4000AC30D2008030D3004A085207D4004B0882
:102B5000533DD5005408500784005508513D850069
:102B6000003F25009100013F9200080091112400D0
:102B700011082000D2002400141DC52D941A161F20
:102B8000C32D0330CE2D0130CE2D941AC92D003027
:102B9000CE2D200052082100DA000230D225240078
:102BA000151608002000D100FA2D2100B301B30A48
:102BB00008005A08B600F02D5A082000CF00210066
:102BC00036088B310A2395312100B60AF02D2100F9
:102BD0003308003A0319DC2D013A0319D92DDC2DF5
:102BE000B3010800210036080526240091002100C9
:102BF000B60A0800510884000430040203180800D3
:102C000092310435A53E82000800F100A02E20007C
:102C100049089E2E200048089E2E200047089E2E20
:102C200020003908031D162E46089E2EF201AA2EFA
:102C300049089E2E20004A08F200CA0122008D1683
:102C4000AA2E4708F200C701AA2E46089E2E200091
:102C50002F08F200370BAA2E462E20002E08F20075
:102C6000370BAA2EAF01AE01AA2E20002D08F200CC
:102C7000370BAA2EAF01AE01AD01AA2E20002C0801
:102C8000F200370BAA2EAC01AD01AE01AF01AA2EA6
:102C900020002B089E2E20002A089E2E20002908A6
:102CA0009E2E200028089E2E200027089E2E200001
:102CB00026089E2E200025089E2E200024089E2EE9
:102CC000200023089E2E200022089E2E200021088E
:102CD0009E2E200020089E2E200045089E2E2000BB
:102CE00044089E2E200043089E2E200042089E2E5F
:102CF000200041089E2E20003908031D162E400892
:102D00009E2E45089E2E44089E2E43089E2E20008F
:102D10003F089E2E20003C089E2E20003B089E2E41
:102D200020003A089E2E20003E089E2E20003D08DE
:102D30009E2E42089E2E53309E2E2330F200AA2E45
:102D400071088400723004020318162E9031043585
:102D5000003E820080307102031CB82E2100400822
:102D6000031DB52E7108803EB62E7108BA26F200FA
:102D700072080800F000BD2E210064003100951893
:102D8000BC2E1517700891007030920015141308AE
:102D9000080023008E1125008E1124008E112100C1
:102DA0008E1123000E1225000E1224000E12210097
:102DB0000E1223008E1225008E1221008E12553025
:102DC0003C008F00AA308F000F103D002508E0392D
:102DD0000C38A5002408E0390D38A4002308E03998
:102DE0000E38A30055303C008F00AA308F000F141E
:102DF00023000E1121000E1570279631E827963119
:102E0000F32F2500930155303C008F00AA308F002E
:102E10000F10E0303D00A50555303C008F00AA3072
:102E20008F000F14432F23008E1222008E162100D4
:102E30008E1255303C008F00AA308F000F103D00DD
:102E40002508E0390C38A50055303C008F00AA3029
:102E50008F000F147027963100307C2796315D2F3C
:102E600023008E1221008E1225008E125D2F21006C
:102E70008E1623008E16320093125D2F23008E12C1
:102E800021008E165D2F200046080339CC00CD01AD
:102E90004D08003A03194D2F5D2F4C088400043073
:102EA000040203185D2F92310435AD3E82002400E8
:102EB0008E12080024008E160800200046080439EF
:102EC000CC00CD014D08003A0319672F6F2F4C0835
:102ED000003A0319572F043A03195A2F6F2F08008D
:102EE0008F302500930003309200FF3091001F08BF
:102EF000FC3901389F000800FC007C08031D942F5A
:102F000022008E1655303C008F00AA308F000F1023
:102F1000E0303D00A50555303C008F00AA308F0001
:102F20000F142500930108001308031DAE2F553020
:102F30003C008F00AA308F000F103D002508E039BB
:102F40000C38A50055303C008F00AA308F000F14BC
:102F50008F3025009300FF309200910020003C0844
:102F6000031DBF2F7C09F600F701F635F70DF63586
:102F7000F70D76082500910077089200080065306B
:102F80007C02031CC52F6430FC007C08F600F701AE
:102F9000F635F70D3C08F000C830F101F200F301FE
:102FA0008D314E25AC30F8008030F900700878077C
:102FB000FA007108793DFB007A08760784007B08E7
:102FC000773D8500003F25009100013F92000800F9
:102FD0008F30970003309600FF3095001F08F339BB
:102FE00004389F0008008F302600930003309200C1
:102FF000FF30910025001F08CF3910389F000800CE
:020000040001F9
:08000E008C3FF237FF1FFF3F9A
:00000001FF
