:020000040000FA
:1000000080313028FF3F08007E1480310B1F2E28DE
:100010002100931C12282000931C12288D311525D5
:1000200080312E282100131C1C282000131C1C28A2
:100030008D31192580312E282100911D2628200080
:10004000911D26289231F42280312E282100131E82
:100050002E282000131E2E289131FC217E1009002D
:100060008031322821005530DA0020308400003001
:1000700085002C30913130218031A0308400003057
:1000800085002A309131302180317E1020004828AF
:10009000282380318B170B1736302100CA0011300E
:1000A000CB0023238031702080318E150E168E16E2
:1000B0000E178E17AC2680316D20803132009817D4
:1000C000981621004903031D61281523803133212F
:1000D00080312100C9016300612822008D160800CB
:1000E0002000C801C701C501C901CA012100C8011A
:1000F0002000AC01AD01AE01AF01A801A901AA0128
:10010000AB01A401A501A601A701A001A101A201C3
:10011000A301C401C301C201C101C001BF0121008B
:10012000C201C1012000B8012100C001BF01BE0110
:100130002000B7012100BD01BC012000B60119302B
:100140002100C600C501C4012000BE01FA30210013
:10015000A800A901A601A70108002100250827027F
:10016000031DB428240826020318B9280530B2005C
:100170000C29A40A0319A50A0C29A401A501172119
:100180008031013A031D0800B201B20A08001721AC
:100190008031003A031D08000230B2000800172128
:1001A0008031013A031D08000330B2000800172116
:1001B0008031003A031D08000430A401A501A2010A
:1001C000A301B200042380313D2AA401A501230824
:1001D0002702031DED28220826020318F128B20188
:1001E0000800A20A0319A30A08000230A401A5010D
:1001F0000423803117218031013A031D092906307B
:10020000B200E428A401A50117218031003A031DA2
:1002100008000130B201E2283208840007300402ED
:100220000318080090310435E43E820008000823DA
:100230008031013A031D282921003108B10A803A92
:100240004E3E031C31293230B100AE01AE0A3129D5
:1002500021003108B103803A7F3E03183129B101F2
:10026000AE012E080800502380316822803111240D
:10027000803121003308B30AD90020003E08210054
:1002800059020318B3013708B70AD9000B305902D5
:10029000031C0800B701502180319B218031E829DF
:1002A00090290330200047052100CE00023A031DAB
:1002B0005C29B601B60A602A0330200047052100F8
:1002C000CE00033A031D080002302100B6000800EA
:1002D000173045224A08CE004B08CF00CF36CE0C4F
:1002E000CF36CE0C4E082000C100080020008E1F23
:1002F00008000130C10038228031C71D80293D220D
:1003000003302100B600080020008E1B0800C10148
:10031000023038228031471E64293D228031642911
:1003200036088400043004020318080091310435B3
:10033000083E82000800DC29033020004605210029
:10034000CE00023A031DA729B501B50A602A033081
:10035000200046052100CE00033A031D08000230AC
:100360002100B5000800163045224A08CE004B088F
:10037000CF00CF36CE0CCF36CE0C4E082000C000BA
:10038000080020000E1F08000130C0000430382291
:100390008031C61DCC293D2203302100B500080064
:1003A00020000E1B0800C001083038228031461E94
:1003B000AF293D228031AF29210035088400043067
:1003C00004020318080091310435003E8200080041
:1003D0002000380B2C2A080003302000450521009E
:1003E000CE00023A031DF729B401B40A602A033093
:1003F000200045052100CE00033A031D080002300D
:100400002100B4000800153045224A08CE004B08F0
:10041000CF00CF36CE0CCF36CE0C4E082000BF001A
:10042000080020008E1E08000130BF001030382266
:100430008031C51D1C2A3D2203302100B400080074
:1004400020008E1A0800BF01203038228031451E5E
:10045000FF293D228031FF29210034088400043027
:1004600004020318080090310435F23E82000800AF
:100470002100CB00C8048030042B20004A08490525
:100480000319080022008D1208002100CD00CC00C5
:10049000CC0DCC0D1D084C0603394C069D001D14D7
:1004A0000D30890B512A000021009D149D18562AF9
:1004B0001C08CB00CA011B08CA070318CB0A080096
:1004C00001309D00E0309E009F019B019C010800CF
:1004D000200046080339031D08003E08031D772A43
:1004E00034084006031908004008B400942A3E0866
:1004F00021003302031C08002000340840060319C1
:10050000080040083402031CB40A34084002031CEB
:10051000B40334089422803120003408400610309F
:10052000031D932AB52CBD2C2100D6005608031DAF
:10053000AD2A22000E1755303C008F00AA308F00E4
:100540000F10E0303D00A60555303C008F00AA306A
:100550008F000F1426009701080026001708031DBE
:10056000C52A55303C008F00AA308F000F103D0087
:100570002608E0390F38A60055303C008F00AA301D
:100580008F000F148F302600970020003C08031DB9
:10059000D92A21005609D000D101D035D10DD0354E
:1005A000D10D500826009500210051082600960024
:1005B0000800653021005602031CE02A6430D60092
:1005C0005608D000D101D035D10D20003C082100C3
:1005D000CA00C830CB01CC00CD011A261530D2009C
:1005E0008630D3004A085207D4004B08533DD5004B
:1005F0005408500784005508513D8500003F2600EF
:100600009500013F96000800CA002000CA040800B7
:100610002000380B0F2B0E0C890C01390800031039
:100620000E1E03140030093D080029082102031D95
:100630001B2B280820020318202BA00A0319A10A4B
:100640003D248031AD284B08AB004A08AA000800C1
:10065000922680315C26803153268031A826803155
:100660002F268031422680313B238031A0268031E5
:10067000AF268031C42E04303E009B0001309C0028
:100680009D019E019F010230A000A830A100A200A0
:10069000A30095309A0020009310210093140800C5
:1006A000200047080339031D08003E08031D5F2B87
:1006B00035084106031908004108B5007C2B3E08A7
:1006C00021003302031C08002000350841060319ED
:1006D000080041083502031CB50A35084102031C15
:1006E000B50335087C2380312000350841060830E9
:1006F000031D7B2BB52CBD2C2100D8005808031DF1
:10070000952B22008E1755303C008F00AA308F00A9
:100710000F10E0303D00A70555303C008F00AA3097
:100720008F000F142C00990108002C001908031DDC
:10073000AD2B55303C008F00AA308F000F103D00CC
:100740002708E0390238A70055303C008F00AA3056
:100750008F000F1480302C00990020003D08031DED
:10076000B72B210058092C0098009701080065302C
:1007700021005802031CBE2B6430D8005808D0005A
:10078000D101D035D10D20003D082100CA00C8306C
:10079000CB01CC00CD011A2680311530D200863035
:1007A000D3004A085207D4004B08533DD5005408E3
:1007B000500784005508513D8500003FD600013F99
:1007C000D700D736D60CD736D60C56082C00980052
:1007D00021005808D000D101D035D10D20003D08AE
:1007E0002100CA00C830CB01CC00CD011A2615303B
:1007F000D2008630D3004A085207D4004B08533D3C
:10080000D5005408500784005508513D8500000864
:100810000339D600D60CD60C560CC0392C009700E4
:100820000800200045080339031D08003E08031D89
:10083000202C33083F06031908003F08B300342D6D
:100840003E0821003302031C0800200033083F0645
:10085000031908003F083302031CB30A33083F02A0
:10086000031CB303330834258031200033083F06CE
:100870002030031D3C2CB52CBD2C2000380803195A
:10088000080021004408031D5F2C200032084406A4
:1008900003194E2C4408B200342580312000310861
:1008A00043060319572C4308B100C12480312000AE
:1008B00030084206031908004208B000A72DB00A0C
:1008C00044083002031C0800B0012000320844062E
:1008D0000319812C4408320203186F2CB20A320823
:1008E0004402031CB2033208342580312000320850
:1008F00044060130031D7F2CB5248031812CBD249A
:10090000803120003108430603199D2C4308310231
:1009100003188B2CB10A31084302031CB1033108C0
:10092000C12480312000310843060230031D9B2C76
:10093000B52480319D2CBD24803120003008420632
:100940000319080042083002031CB00A30084202B2
:10095000031CB0033008A725803120003008420670
:100960000430031DB42CB52CBD2C2100CC004C0947
:10097000C7054030382280313D2A2100CA00C70413
:1009800008002100D6005608031DDA2C22000E169E
:1009900055303C008F00AA308F000F10E0303D0032
:1009A000A40555303C008F00AA308F000F1425009D
:1009B0009701080025001708031DF52C55303C0051
:1009C0008F00AA308F000F103D002408E0390D3849
:1009D000A40055303C008F00AA308F000F148F30D8
:1009E00025009700FF309600950020003A08031D6F
:1009F000092D21005609D000D101D035D10DD035B7
:100A0000D10D5008250095002100510825009600C1
:100A10000800653021005602031C102D6430D600FA
:100A20005608D000D101D035D10D20003A08210060
:100A3000CA00C830CB01CC00CD011A261530D20037
:100A40008630D3004A085207D4004B08533DD500E6
:100A50005408500784005508513D8500003F25008B
:100A60009500013F960008002100D6005608031D9E
:100A70004D2D22008E1655303C008F00AA308F007D
:100A80000F10E0303D00A50555303C008F00AA3026
:100A90008F000F1425009301080025001308031D83
:100AA000682D55303C008F00AA308F000F103D009C
:100AB0002508E0390C38A50055303C008F00AA30DD
:100AC0008F000F148F3025009300FF3092009100AB
:100AD00020003B08031D7C2D21005609D000D101C8
:100AE000D035D10DD035D10D500825009100210011
:100AF0005108250092000800653021005602031CB1
:100B0000832D6430D6005608D000D101D035D10DE8
:100B100020003B082100CA00C830CB01CC00CD0129
:100B20001A261530D2008630D3004A085207D40066
:100B30004B08533DD5005408500784005508513DDB
:100B40008500003F25009100013F92000800210030
:100B5000D6005608031DC02D22008E1555303C00CE
:100B60008F00AA308F000F10E0303D00A3055530F4
:100B70003C008F00AA308F000F142600930108005C
:100B800026001308031DDB2D55303C008F00AA30D2
:100B90008F000F103D002308E0390E38A3005530B8
:100BA0003C008F00AA308F000F148F302600930076
:100BB000FF309200910020003908031DEF2D210025
:100BC0005609D000D101D035D10DD035D10D500806
:100BD000260091002100510826009200080065308F
:100BE00021005602031CF62D6430D6005608D000B2
:100BF000D101D035D10D200039082100CA00C830FC
:100C0000CB01CC00CD011A261530D2008630D3009E
:100C10004A085207D4004B08533DD50054085007EA
:100C200084005508513D8500003F26009100013F9A
:100C300092000800CE01CF014A1C222E4C08CE079C
:100C40004D08CF3DCC35CD0DCB36CA0C4A084B04F0
:100C5000031D1C2E4F08CB004E08CA0008002000C0
:100C6000CB010C1C4B148C1CCB140C1D4B158C1D78
:100C7000CB150C1E4B168C1ECB160D1E4B174B3571
:100C8000CB000800240094012630950096019701BE
:100C9000FE30930020004B082400920020009111A8
:100CA0002100911508006030320099009B019D01E0
:100CB00007309F009E01080022008C018D018E01EB
:100CC000373021008C00D0308D00FF308E002300A3
:100CD0008E0120308D008C01103024008D003F30BB
:100CE0008C008E0125008C0120308D008E013C008F
:100CF0002008E0390E38A0002108E0390F38A100A3
:100D00002908E0391138A9002808E0391038A8006E
:100D10003D001F08E03919389F001E08E0391838D7
:100D20009E000800403032009100F23092006630A0
:100D30009300E030940020309500193096000800B0
:100D4000FF3020009E009D01911004309F0008009C
:100D50001630210097000800280013140800043002
:100D60003E00910092010130930094009500023002
:100D70009600A830970098009900953090002000C8
:100D8000131021001314080028009401E030920091
:100D9000C030910012082100AD00AC0128001108FC
:100DA0002100AC0420001312210013160330CA00E6
:100DB0000030CB0023230130280093000800F434D6
:100DC0000334EA340334DF340334D5340334CB340E
:100DD0000334C1340334B6340334AC340334A234A2
:100DE0000334983403348E34033483340334793435
:100DF00003346F340334653403345A3403345034C9
:100E00000334463403343C3403343234033427345B
:100E100003341D3403341334033409340334FE34EF
:100E20000234F4340234EA340234E0340234D63486
:100E30000234CB340234C1340234B7340234AD341A
:100E40000234A3340234983402348E3402348434AD
:100E500002347A3402346F340234653402345B3441
:100E6000023451340234473402343C3402343234D4
:100E70000234283402341E34023413340234093468
:100E80000234FF340134F5340134EB340134E034FE
:100E90000134D6340134CC340134C2340134B73493
:100EA0000134AD340134A3340134993401348F3426
:100EB0000134843401347A340134703401346634BA
:100EC00001345B34013451340134473401343D344E
:100ED000013433340134283401341E3401341434E1
:100EE00001340A340134FF340034F5340034EB3477
:100EF0000034E1340034D7340034CC340034C2340C
:100F00000034B8340034AE340034A434003499349E
:100F100000348F340034853400347B340034703432
:100F20000034663400345C340034523400344834C5
:100F300000343D34003433340034293400341F3459
:100F40000034143400340A34003400340034FE34E5
:100F50000334FD340334FC340334FB340334F934F8
:100F60000334F8340334F5340334F3340334F13404
:100F70000334EE340334EB340334E8340334E43420
:100F80000334E0340334DC340334D8340334D4344D
:100F90000334CF340334CB340334C6340334C03485
:100FA0000334BB340334B5340334B0340334AA34CB
:100FB0000334A43403349D3403349734033490341D
:100FC000033489340334823403347B34033473347C
:100FD00003346B340334643403345C3403345334E7
:100FE00003344B340334423403343A34033431345D
:100FF0000334283403341E340334153403340B34DF
:10100000033401340334F7340234ED340234E3346E
:101010000234D9340234CE340234C3340234B83406
:101020000234AD340234A2340234963402348A34A9
:1010300002347F34023473340234673402345A3455
:1010400002344E340234413402343434023427340E
:1010500002341A3402340D34023400340234F234CF
:101060000134E4340134D6340134C8340134BA34A0
:101070000134AC3401349D3401348E340134803475
:101080000134713401346134013452340134433455
:101090000134333401342334013413340134033440
:1010A0000134F3340034E3340034D2340034C13436
:1010B0000034B1340034A03400348E3400347D3434
:1010C00000346C3400345A3400344834003437343B
:1010D0000034243400341234003400340034FE343C
:1010E0000334FE340334FD340334FC340334FB3462
:1010F0000334FA340334F9340334F7340334F63464
:101100000334F4340334F2340334EF340334ED3471
:101110000334EA340334E7340334E4340334E0348E
:101120000334DD340334D9340334D5340334D134B7
:101130000334CD340334C8340334C3340334BE34ED
:101140000334B9340334B3340334AE340334A83431
:101150000334A23403349C340334953403348F3481
:10116000033488340334813403347A3403347234DE
:1011700003346A340334633403345A34033452344A
:1011800003344A34033441340334383403342F34C1
:101190000334263403341C34033413340334093445
:1011A0000334FE340234F4340234EA340234DF34DB
:1011B0000234D4340234C9340234BE340234B2347A
:1011C0000234A63402349A3402348E340234823427
:1011D000023475340234683402345B3402344E34E1
:1011E00002344134023433340234253402341734A7
:1011F000023409340234FB340134EC340134DD347C
:101200000134CE340134BF340134B0340134A0345D
:1012100001349034013480340134703401345F344B
:1012200001344F3401343E3401342D3401341C3444
:1012300001340A340134F8340034E7340034D4344F
:101240000034C2340034B03400349D3400348A3465
:1012500000347734003464340034503400343C3487
:101260000034283400341434003400340034FE34A4
:101270000334FE340334FE340334FD340334FD34CC
:101280000334FC340334FB340334FA340334F934C8
:101290000334F8340334F6340334F4340334F334CD
:1012A0000334F0340334EE340334EC340334E934DF
:1012B0000334E7340334E4340334E0340334DD34FA
:1012C0000334D9340334D6340334D2340334CE3423
:1012D0000334C9340334C5340334C0340334BB3459
:1012E0000334B6340334B0340334AB340334A5349C
:1012F00003349F34033499340334923403348B34ED
:101300000334843403347D340334763403346E344C
:101310000334663403345E340334563403344E34B9
:101320000334453403343C34033433340334293434
:10133000033420340334163403340C3403340134BE
:101340000334F7340234EC340234E1340234D5345B
:101350000234CA340234BE340234B2340234A63405
:101360000234993402348C3402347F3402347234BF
:1013700002346434023457340234493402343A3487
:1013800002342C3402341D3402340E340234FF345F
:101390000134EF340134DF340134CF340134BF344D
:1013A0000134AE3401349E3401348C3401347B3446
:1013B00001346A340134583401344634013433344E
:1013C0000134213401340E340134FB340034E73469
:1013D0000034D3340034BF340034AB340034973499
:1013E0000034823400346D340034583400344234D4
:1013F00000342C3400341634003400340034FE340D
:101400000334FE340334FE340334FE340334FD3439
:101410000334FD340334FC340334FC340334FB3430
:101420000334FA340334F9340334F8340334F6342F
:101430000334F5340334F3340334F1340334EF3438
:101440000334ED340334EB340334E9340334E63449
:101450000334E3340334E0340334DD340334D93467
:101460000334D6340334D2340334CE340334CA3490
:101470000334C5340334C1340334BC340334B734C7
:101480000334B1340334AC340334A6340334A0340D
:1014900003349A340334933403348D340334863460
:1014A00003347F34033477340334703403346834C2
:1014B00003345F340334573403344E340334463436
:1014C00003343C34033433340334293403341F34B9
:1014D0000334153403340B34033400340334F5344B
:1014E0000234EA340234DE340234D2340234C634F4
:1014F0000234BA340234AD340234A03402349334AA
:1015000002348534023477340234693402345B3473
:1015100002344C3402343D3402342D3402341E344F
:1015200002340E340234FE340134ED340134DC3440
:101530000134CB340134BA340134A8340134963444
:10154000013483340134713401345D3401344A345C
:10155000013436340134223401340E340134F93488
:101560000034E4340034CF340034B9340034A334CC
:1015700000348D340034763400345F340034483421
:101580000034303400341834003400340034FE3475
:101590000334FE340334FE340334FE340334FE34A7
:1015A0000334FD340334FD340334FD340334FC349C
:1015B0000334FB340334FB340334FA340334F93496
:1015C0000334F8340334F7340334F5340334F43497
:1015D0000334F2340334F0340334EE340334EC34A3
:1015E0000334EA340334E8340334E5340334E234B6
:1015F0000334DF340334DC340334D9340334D534D6
:101600000334D1340334CD340334C9340334C53402
:101610000334C0340334BB340334B6340334B1343C
:101620000334AB340334A6340334A0340334993484
:101630000334933403348C340334853403347E34DC
:101640000334763403346E340334663403345E3446
:101650000334553403344D340334433403343A34BF
:10166000033430340334263403341C34033411344B
:10167000033406340334FB340234EF340234E334ED
:101680000234D7340234CB340234BE340234B134A1
:101690000234A3340234953402348734023479346A
:1016A00002346A3402345B3402344B3402343B3447
:1016B00002342B3402341A34023409340234F8343C
:1016C0000134E6340134D4340134C2340134AF344B
:1016D00001349C340134883401347534013460346D
:1016E00001344C34013436340134213401340B34A8
:1016F0000134F5340034DE340034C7340034B034FF
:1017000000349834003480340034673400344E346C
:101710000034343400341A34003400340034FE34DD
:101720000334FE340334FE340334FE340334FE3415
:101730000334FE340334FD340334FD340334FD3408
:101740000334FC340334FC340334FB340334FB34FF
:101750000334FA340334F9340334F8340334F734FB
:101760000334F6340334F4340334F3340334F134FF
:101770000334EF340334ED340334EB340334E9340D
:101780000334E6340334E4340334E1340334DE3424
:101790000334DB340334D8340334D4340334D03446
:1017A0000334CC340334C8340334C4340334BF3476
:1017B0000334BA340334B5340334AF340334AA34B5
:1017C0000334A43403349E34033497340334913403
:1017D00003348A340334833403347B340334733462
:1017E00003346B340334633403345A3403345134D4
:1017F0000334483403343E340334343403342A3459
:10180000033420340334153403340A340334FE34EF
:101810000234F2340234E6340234D9340234CC34A3
:101820000234BF340234B1340234A3340234943469
:101830000234863402347634023467340234573446
:10184000023446340234353402342434023412343F
:10185000023400340234EE340134DB340134C73452
:101860000134B43401349F3401348B340134763480
:101870000134603401344A340134333401341D34CA
:10188000013405340134ED340034D5340034BC3433
:101890000034A3340034893400346E3400345434BA
:1018A0000034383400341C340034003400349431B3
:1018B0009A2C9431A32C9431A82C9431AD2C9431D2
:1018C000B52C95316E2D95316E2D95316E2D94314F
:1018D000B82C9431BB2C9431BE2C9431C12C943152
:1018E000C42C9431C72C9431CA2C9431CD2C943112
:1018F000D02C9431D32C9431D62C9431D92C9431D2
:10190000DC2C9431DF2C9431E22C9431E52C943191
:10191000E82C9431EB2C9431EE2C9431F12C943151
:10192000F62C9431FC2C9531052D9531162D9531E1
:10193000272D95312B2D95316E2D95316E2D9531AD
:101940006E2D95316E2D95316E2D95312E2D953153
:10195000372D9531402D9531492D9531522D9531A9
:101960005B2D95316E2D95316E2D95316E2D953106
:101970005C2D380BBC2C080003304505F000700BC3
:1019800008003F08031DC72C22008E120800220009
:101990008E1601302000BF00080048082100BD005D
:1019A0000130BD0520004836B7000130B7054808B2
:1019B000F000F036F03670082100BE000130BE05A0
:1019C00020004808F000F036F036F03670082100AC
:1019D000BF000130BF052000480E0F392100C000B4
:1019E0000130C00520004808F0000530F036890BB2
:1019F000F62C7008B8000130B8054808F000063031
:101A0000F036890B002D70082100C1000130C1059E
:101A100020004808F0000730F036890B0C2D7008C4
:101A20002100C2000130C2050800A2252000931049
:101A300008001D2520001310080021002F0B282D61
:101A400029082102031D262D28082002031C080056
:101A5000A001A101AF013D08031D582D20002C0855
:101A60002007D4002D08213DD5002E08223DD600A8
:101A70002F08233DD700AF005608AE005508AD0033
:101A80005408AC00083028268D312B08803AD40049
:101A90002F08803A5402031D892D2E082A02031DA7
:101AA000892D2D082902031D892D2C082802892D36
:101AB00020002308F3002208F2002108F10020088A
:101AC000F0002F08F7002E08F6002D08F5002C086E
:101AD000F4008D268D3173082000AF007208AE002F
:101AE0007108AD007008AC00083028268D312B0835
:101AF000F3002A08F2002908F1002808F0002F0856
:101B0000F7002E08F6002D08F5002C08F4002B260F
:101B10008D310318A02D203028268D31370B982DBC
:101B20002708AF002608AE002508AD0024089F2D29
:101B30002B08AF002A08AE002908AD002808AC0029
:101B4000DC27080021002F08031DAE2D29082102E3
:101B5000031DAC2D28082002031C0800A001A101D0
:101B6000AF01AF0A3D08031DDF2D200020082C0225
:101B7000DC0021082D3BDD0022082E3BDE0023087F
:101B80002F3BDF00AF005E08AE005D08AD005C08D3
:101B9000AC00103028268D312F08803ADC00270851
:101BA000803A5C02031D0F2E26082E02031D0F2E05
:101BB00025082D02031D0F2E24082C020F2E2000B5
:101BC0002308D7002208D6002108D5002008D40019
:101BD0002F08DB002E08DA002D08D9002C08D800C9
:101BE000E3278D315708AF005608AE005508AD0009
:101BF0005408AC00103028268D312F08F3002E0831
:101C0000F2002D08F1002C08F0002708F700260844
:101C1000F6002508F5002408F4002B268D31031862
:101C2000262E403028268D31370B1E2E2B08AF0074
:101C30002A08AE002908AD002808252E2708AF0085
:101C40002608AE002508AD002408AC00DC270800FB
:101C5000F000CA0408008030F801F9017205FA00AA
:101C60007F307305FB007A0479047804031D3C2E51
:101C7000F001F101F201F3018030F801F90176057C
:101C8000FA007F307705FB007A0479047804031D9D
:101C90004D2EF401F501F601F701F31F642E80309B
:101CA000F801F901FA01FB007008F8027108F93B2C
:101CB0007208FA3B7308FB3B7B08F3007A08F200DA
:101CC0007908F1007808F000F71F7B2E8030F801CA
:101CD000F901FA01FB007408F8027508F93B76086F
:101CE000FA3B7708FB3B7B08F7007A08F600790897
:101CF000F5007808F4008030F306F70677087302E1
:101D0000031D080076087202031D080075087102A1
:101D1000031D08007408700208007308F800803082
:101D2000F8057335FA00F21B7A147A080319A02E0D
:101D30007A0F9E2EF001F101F201F301F217A32EAA
:101D4000F001F101F201F3017708F9008030F905A3
:101D500079087806031D78177735F900F61B791492
:101D600079080319BB2E790FB92EF401F501F6019C
:101D7000F701F617BE2EF401F501F601F7017A0816
:101D800079020318E52E781FC72E8030F8067A08EE
:101D9000FB007908FA007B08F9007008FB00740862
:101DA000F0007B08F4007108FB007508F1007B0867
:101DB000F5007208FB007608F2007B08F600730855
:101DC000FB007708F3007B08F700FB017908CC00E3
:101DD000CD014D08CF007A084C02CE00031CCF0382
:101DE0004F08803AD00080305002031DF92E1A307F
:101DF0004E02031C1A2F7308720471047004031935
:101E0000032F0130042F0030FB00F001F101F2013B
:101E1000F3017908FA001E2F7B1C122F7B36013844
:101E2000FB00132FFB367018FB17F337F20CF10C85
:101E3000F00CFA0A79087A02031C0C2F781B412F48
:101E40007A08031D282FF001F101F201F3010800C7
:101E50007408F0077508F13D7608F23D7708F33D08
:101E6000731CAA2F7B1C382F7B360138FB00392FBF
:101E7000FB367018FB17F337F20CF10CF00CFA0A72
:101E8000AA2F7308803A2000CC007708803A4C02D1
:101E9000031D542F76087202031D542F750871021A
:101EA000031D542F740870020318832FFF30CC00D9
:101EB000CD00CE00CF0070087402D0007108753BD1
:101EC000D1007208763BD2007308773BD3005008EC
:101ED000CC075108CD3D5208CE3D5308CF3D4F08A9
:101EE000F3004E08F2004D08F1004C08F00080307D
:101EF000F806FB09FB0F8B2F0130F0070030F13D96
:101F0000F23DF33D8B2F7408F0027508F13B760823
:101F1000F23B7708F33B7308720471047004031DED
:101F2000A82F7B08031DA82FF001F101F201F30196
:101F30000800F035F10DF20DF30DFB1B70147B1C46
:101F4000A42F0314FB0DA52FFB357A08031DFA03FC
:101F5000F21F992FF901FB1FB52F7B087F39031959
:101F60007018B32FB52FF901F90A79080319C62F94
:101F70000130F0070030F13DF23DF33D731CC62FF8
:101F8000F337F20CF10CF00C7A0FFA0A7A0A031DFF
:101F90007A08031DD22FF001F101F201F3017A0852
:101FA0000319F8017A1CD62FF217D72FF2137A36BD
:101FB000F300F81BF31708004A0849050319080045
:101FC00022008D1208008030D7065B08F3005A0803
:101FD000F2005908F1005808F0005708F7005608B9
:101FE000F6005508F5005408F4008D26730820000B
:101FF000D7007208D6007108D5007008D400080018
:102000009331452B9331482B93314B2B93314E2BEE
:102010009331562B9331592B9331602B9331642B91
:102020009331662B93316C2B9331742B93317D2B31
:102030009331872B93318A2B93318D2B9331902BB6
:102040009331932B9331962B9331992B93319C2B76
:1020500093319F2B9331A22B9331A52B9331A82B36
:102060009331AB2B9331AE2B9331B12B9331B42BF6
:102070009331B72B9331BA2B9331C02B9331C22BB1
:102080009331C42B9331C62B9331542B9331542B62
:102090009331542B9331542B9331542B9331C92BBF
:1020A0009331CC2B9331CF2B9331D22B9331D52B32
:1020B0009331C92B9331542B9331542B9331542B9F
:1020C0009331D82B9331542B9331542B9331542B80
:1020D0009331542B9331542B9331542B9331542BF4
:1020E0009331542B9331542B9331542B9331542BE4
:1020F0009331542B9331542B9331542B9331542BD4
:102100009331542B9331542B9331542B9331542BC3
:102110009331542B9331542B9331542B9331542BB3
:102120009331542B9331542B9331542B9331542BA3
:102130009331542B9331542B9331542B9331542B93
:102140009331542B9331542B9331542B9331542B83
:102150009331542B9331542B9331542B9331542B73
:102160009331542B9331542B9331542B9331542B63
:102170009331542B9331542B9331542B9331542B53
:102180009331542B9331542B9331542B9331542B43
:102190009331542B9331542B9331542B9331542B33
:1021A0009331542B9331542B9331542B9331542B23
:1021B0009331542B9331542B9331542B9331542B13
:1021C0009331DA2B9331DC2B8031BD288031C72845
:1021D0008031CF288031D7288031E5288031F5281B
:1021E000813102298131EC298231032A8231112A7D
:1021F0008231202AFF3FFF3FFF3FFF3FFF3FFF3F6E
:1022000081319C298131B3298131C1298131D02982
:10221000813151298131682981317629813184299F
:102220009331132B9331302B9331252B9331422B48
:102230009731092F9731262F97312D2F9731342F32
:102240009631242E9631412E9631482E96314F2EBE
:102250009531AB2D9531C82D9531CF2D9531D62D9A
:10226000640080010131890B31290034C901C90A98
:102270000800FF3FFF3FFF3FFF3FFF3FFF3FFF3FA4
:10235000FF3FFF3F2400940126309500960197012E
:10236000FE30930020004B082400920020009111C1
:1023700021009115080003304605F000700B08009D
:102380004008031DC62922000E13080022000E1764
:1023900001302000C000080024009501960194013E
:1023A00026309500013096009701FE309300200002
:1023B0004B08240092002000911121009115080083
:1023C000F10031009518E12915177108910070305E
:1023D000920094017008930003108B1B03148B135D
:1023E000151555309600AA30960095149518F629C3
:1023F000151103188B170800131221002D08F10086
:102400002C08F00010229131052A21002A082B0403
:10241000031908002B088A002A080A0092310800D4
:102420002800131D1A2A13107108920070089100D9
:102430001314080071089200700891000800200031
:102440003803031D262A8C229231282AC522923174
:1024500021003E0B3F2A55303C008F00AA308F00F0
:102460000F102908E0391138A9002808E039103880
:10247000A80055308F00AA308F000F14522A553013
:102480003C008F00AA308F000F102908E039103867
:10249000A9002808E0391138A80055308F00AA306B
:1024A0008F000F1421003F0B582A24008D125A2A46
:1024B00024008D1622008D162100400B652A200075
:1024C0001310210013109D306A2A200013102100E0
:1024D000131095303E00900021001314200093103B
:1024E000210093103E009A00210093143D08031D23
:1024F000802A01302000A000A101A201A301872AA7
:102500003F302000A3008030A200A101A0012100E3
:10251000420B08000100080023008E1125008E11D7
:1025200024008E1121008E1123000E1225000E12A0
:1025300024000E1221000E1223008E1225008E128E
:1025400021008E1255303C008F00AA308F000F10F2
:102550003D002508E0390C38A5002408E0390D3885
:10256000A4002308E0390E38A30055303C008F004A
:10257000AA308F000F1423000E1121000E15973181
:1025800066279231DC229231E72A23000E122400C2
:102590000E1621000E1623008E1125008E1121002B
:1025A0008E1122008E112500970126009301230031
:1025B0000E1121000E1508008F3097000330960091
:1025C000FF3095001F08F33904389F0008008F3052
:1025D0002600930003309200FF30910025001F0871
:1025E000CF3910389F0008009111240011082000F5
:1025F000D2002400141D032B941A161F012B033044
:102600000C2B01300C2B941A072B00300C2B2000C4
:1026100052082100DA0002301023240015160800A9
:102620002000D100382B2100B801B80A08005A0850
:10263000BB002E2B5A082000CF0021003B0894310C
:10264000972492312100BB0A2E2B21003808003A32
:1026500003191A2B013A0319172B1A2BB80108007A
:1026600021003B084323240091002100BB0A0800FD
:102670005108840004300402031808009131043525
:10268000103E82000800F100DF2B20004808DD2BFF
:1026900020004708DD2B20004608DD2B20003808ED
:1026A000031D542B4508DD2BF201E92B20004908BE
:1026B000DD2B20004A08F200CA0122008D16E92B0A
:1026C0004808F200C801E92B4708DD2B20002F083D
:1026D000F200360BE92B852B20002E08F200360B7A
:1026E000E92BAF01AE01E92B20002D08F200360BDB
:1026F000E92BAF01AE01AD01E92B20002C08F2005F
:10270000360BE92BAC01AD01AE01AF01E92B200086
:102710002B08DD2B20002A08DD2B20002908DD2BCB
:1027200020002808DD2B20002708DD2B20002608AC
:10273000DD2B20002508DD2B20002408DD2B2000C8
:102740002308DD2B20002208DD2B20002108DD2BB3
:1027500020002008DD2B20004408DD2B200043084A
:10276000DD2B20004208DD2B20004108DD2B20005E
:102770004008DD2B20003808031D542B3F08DD2BBB
:102780004608DD2B4508DD2B4408DD2B20003E08E4
:10279000DD2B20003B08DD2B20003A08DD2B20003C
:1027A0003908DD2B20003D08DD2B20003C08DD2B07
:1027B0004308DD2B5330DD2B2130F200E92B71086B
:1027C0008400723004020318542B90310435003E0B
:1027D000820080307102031CF72B21004108031D89
:1027E000F42B7108803EF52B7108F923F200720872
:1027F0000800F000FC2B2100640031009518FB2B31
:102800001517700891007030920015141308080015
:102810002000CC004C08031D212C22008E175530BF
:102820003C008F00AA308F000F10E0303D00A7055C
:1028300055303C008F00AA308F000F142C009901F6
:1028400008002C001908031D392C55303C008F005E
:10285000AA308F000F103D002708E0390238A7008A
:1028600055303C008F00AA308F000F1480302C00B0
:10287000990020003D08031D422C4C092C009800B3
:102880009701080065304C02031C482C6430CC00D2
:102890004C08F600F701F635F70D3D08F000C8309A
:1028A000F101F200F301842594311530F8008630EF
:1028B000F90070087807FA007108793DFB007A0882
:1028C000760784007B08773D8500003FFC00013FD0
:1028D000FD00FD36FC0CFD36FC0C7C082C0098003D
:1028E00020004C08F600F701F635F70D3D08F00022
:1028F000C830F101F200F30184251530F80086306C
:10290000F90070087807FA007108793DFB007A0831
:10291000760784007B08773D850000080339FC00BA
:10292000FC0CFC0C7C0CC0392C009700080020002B
:10293000D000642D4F08C8008C31CD2494319231E1
:102940001F2294316E2D4F08C700992594316E2DAA
:102950004F08C600122694316E2D3808031D6E2DC7
:102960004F08C500F72694316E2D4F08C9006E2D13
:102970004F08AF006E2D4F08AE006E2D4F08AD0012
:102980006E2D4F08AC006E2D4F08AB006E2D4F081A
:10299000AA006E2D4F08A9006E2D4F08A8006E2DBD
:1029A0004F08A7006E2D4F08A6006E2D4F08A500FA
:1029B0006E2D4F08A4006E2D4F08A3006E2D4F08FA
:1029C000A2006E2D4F08A1006E2D4F08A0006E2DA5
:1029D0004F08C4006E2D4F08C3006E2D4F08C20073
:1029E0006E2D4F08C100EF2794316E2D4F08C000A7
:1029F0009131BB2194316E2D3808031D6E2D4F0887
:102A0000BF008C31B92494316E2D4F082100C600CF
:102A10004608F0000A30F101F200F30184259431F8
:102A200071082100A9007008A8006E2D4F08210030
:102A3000C5004508F0000A30F101F200F3018425D9
:102A4000943171082100A7007008A6006E2D4F0870
:102A50002100C4006E2D4F08BE006E2D4F08BB0034
:102A600009303B02031C6E2D0830BB006E2D4F0851
:102A7000BA0009303A02031C6E2D0830BA006E2DE0
:102A80004F08B90009303902031C6E2D0830B90017
:102A90006E2D4F08BD0009303D02031C6E2D08301D
:102AA000BD006E2D4F08BC0009303C02031C6E2D8A
:102AB0000830BC006E2D2E2D4F082100C300E527E5
:102AC0009431DD2794316E2D50088400313004029A
:102AD00003186E2D8C310435573E82008030200063
:102AE0005002031C080021004108031D7E2D200018
:102AF0004F08F0005008803E9131E02920004F0837
:102B0000F00050089131E029F401F501701C8C2D82
:102B10007208F4077308F53DF235F30DF136F00C49
:102B200070087104031D862D7508F1007408F0000B
:102B300008002C00990155303C008F00AA308F000E
:102B40000F10E0303D00A70555303C008F00AA3043
:102B50008F000F14DB2D23008E1322008E1721000F
:102B60008E1355303C008F00AA308F000F103D00AF
:102B70002708E0390238A70055303C008F00AA3002
:102B80008F000F1408269431003008249431F52D5D
:102B900023008E1321008E1325008E13F52D2100A6
:102BA0008E1723008E1732009312F52D23008E13FB
:102BB00021008E17F52D200047080339CD00CE01E6
:102BC0004E08003A0319E52DF52D4D088400043018
:102BD00004020318F52D91310435283E82002400AB
:102BE0008E13080024008E170800200047080439BF
:102BF000CD00CE014E08003A0319FF2D072E4D08D7
:102C0000003A0319EF2D043A0319F22D072E08009C
:102C100080302C009900980197011F08FC39013879
:102C20009F0008002600970155303C008F00AA3015
:102C30008F000F10E0303D00A60555303C008F009E
:102C4000AA308F000F14542E23000E1322000E17EB
:102C500021000E1355303C008F00AA308F000F105A
:102C60003D002608E0390F38A60055303C008F00A3
:102C7000AA308F000F148126943100308E269431B3
:102C80006E2E23000E1321000E1325000E136E2E40
:102C900021000E1723000E17320093126E2E230010
:102CA0000E1321000E176E2E200046080339CC00AB
:102CB000CD014D08003A03195E2E6E2E4C0884009B
:102CC0000430040203186E2E91310435203E820038
:102CD00024000E13080024000E17080020004608E8
:102CE0000439CC00CD014D08003A0319782E802E0E
:102CF0004C08003A0319682E043A03196B2E802EF3
:102D000008008F302600970003309600FF309500B2
:102D100025001F083F3940389F000800FC007C0850
:102D2000031DA62E22000E1755303C008F00AA303E
:102D30008F000F10E0303D00A60555303C008F009D
:102D4000AA308F000F1426009701080026001708EC
:102D5000031DBE2E55303C008F00AA308F000F108F
:102D60003D002608E0390F38A60055303C008F00A2
:102D7000AA308F000F148F302600970020003C08E7
:102D8000031DCF2E7C09F600F701F635F70DF63559
:102D9000F70D760826009500770896000800653044
:102DA0007C02031CD52E6430FC007C08F600F70181
:102DB000F635F70D3C08F000C830F101F200F301E0
:102DC00084251530F8008630F90070087807FA007D
:102DD0007108793DFB007A08760784007B08773D0F
:102DE0008500003F26009500013F96000800250061
:102DF000930155303C008F00AA308F000F10E03057
:102E00003D00A50555303C008F00AA308F000F14FF
:102E1000392F23008E1222008E1621008E1255307B
:102E20003C008F00AA308F000F103D002508E039CC
:102E30000C38A50055303C008F00AA308F000F14CD
:102E400066279431003072279431532F23008E125D
:102E500021008E1225008E12532F21008E16230082
:102E60008E1632009312532F23008E1221008E16DD
:102E7000532F200045080339CC00CD014D08003AFE
:102E80000319432F532F4C08840004300402031805
:102E9000532F91310435183E820024008E12080011
:102EA00024008E160800200045080439CC00CD010E
:102EB0004D08003A03195D2F652F4C08003A03199D
:102EC0004D2F043A0319502F652F08008F3025002D
:102ED000930003309200FF3091001F08FC39013845
:102EE0009F000800FC007C08031D8A2F22008E161C
:102EF00055303C008F00AA308F000F10E0303D00AD
:102F0000A50555303C008F00AA308F000F14250016
:102F1000930108001308031DA42F55303C008F00B7
:102F2000AA308F000F103D002508E0390C38A500AD
:102F300055303C008F00AA308F000F148F302500D1
:102F40009300FF309200910020003B08031DB52F35
:102F50007C09F600F701F635F70DF635F70D760822
:102F60002500910077089200080065307C02031C60
:102F7000BB2F6430FC007C08F600F701F635F70D36
:102F80003B08F000C830F101F200F3018425153050
:102F9000F8008630F90070087807FA007108793D6A
:102FA000FB007A08760784007B08773D8500003FA8
:102FB00025009100013F9200080021003C0BE22F08
:102FC0009131CC299131AA2108004308BC0001307D
:102FD000BC0543362000B6000130B60508000330BA
:102FE0004705F000700B08004108031DFA2F22006E
:102FF0008E13080022008E1701302000C100080047
:020000040001F9
:08000E008CFFF2F7FFDFFFFF9A
:00000001FF
