:020000040000FA
:1000000080313028FF3F08007E1480310B1F2E28DE
:100010002100931C12282000931C12288D310425E6
:1000200080312E282100131C1C282000131C1C28A2
:100030008D31102580312E282100911D2628200089
:10004000911D26289231F42280312E282100131E82
:100050002E282000131E2E289131FE217E1009002B
:100060008031322821005530DA0020308400003001
:1000700085002C30913130218031A0308400003057
:1000800085002A309131302180317E1020004828AF
:100090002B2380318B170B1736302100CA0011300B
:1000A000CB0026238031702080318E150E168E16DF
:1000B0000E178E17AF2680316D20803132009817D1
:1000C000981621004803031D61281823803135212B
:1000D00080312100C8016300612822008D160800CC
:1000E0002000C801C701C5012100C9012000C901C4
:1000F0002100C7012000AC01AD01AE01AF01A80194
:10010000A901AA01AB01A401A501A601A701A001B3
:10011000A101A201A301C401C301C201C101C00127
:10012000BF012100C101C0012000B801CB012100A5
:10013000BF01BE012000B7012100BD01BC012000AC
:10014000B60119302100C500C401C3012000BE0161
:10015000FA302100A800A901A601A701080021008A
:1001600025082702031DB628240826020318BB28E9
:100170000530B2000E29A40A0319A50A0E29A4010C
:10018000A50119218031013A031D0800B201B20A0C
:10019000080019218031003A031D08000230B20026
:1001A000080019218031013A031D08000330B20014
:1001B000080019218031003A031D08000430A40111
:1001C000A501A201A301B200072380313F2AA401A7
:1001D000A50123082702031DEF2822082602031881
:1001E000F328B2010800A20A0319A30A080002308A
:1001F000A401A5010723803119218031013A031D93
:100200000B290630B200E628A401A501192180318E
:10021000003A031D08000130B201E42832088400CE
:10022000073004020318080090310435E43E8200D0
:1002300008000B238031013A031D2A2921003108CF
:10024000B10A803A4E3E031C33293230B100AE0170
:10025000AE0A332921003108B103803A7F3E0318EA
:100260003329B101AE012E080800532380316B22DF
:1002700080311424803121003308B30AD9002000D2
:100280003E08210059020318B3013708B70AD90004
:100290000B305902031C0800B701522180319D2107
:1002A0008031EA2992290330200047052100CE0041
:1002B000023A031D5E29B601B60A632A0330200004
:1002C00047052100CE00033A031D0800023021003B
:1002D000B6000800173048224A08CE004B08CF006D
:1002E000CF36CE0CCF36CE0C4E082000C100080011
:1002F00020008E1F08000130C1003A228031C71D46
:1003000082293F2203302100B600080020008E1B06
:100310000800C10102303A228031471E66293F227F
:10032000803166293608840004300402031808006E
:1003300091310435083E82000800DE290330200098
:1003400046052100CE00023A031DA929B501B50AD0
:10035000632A0330200046052100CE00033A031D26
:10036000080002302100B5000800163048224A0873
:10037000CE004B08CF00CF36CE0CCF36CE0C4E0879
:100380002000C000080020000E1F08000130C0003F
:1003900004303A228031C61DCE293F22033021008D
:1003A000B500080020000E1B0800C00108303A22EA
:1003B0008031461EB1293F228031B1292100350804
:1003C0008400043004020318080091310435003E13
:1003D000820008002000380B2E2A0800033020007D
:1003E00045052100CE00023A031DF929B401B40AE3
:1003F000632A0330200045052100CE00033A031D87
:10040000080002302100B4000800153048224A08D4
:10041000CE004B08CF00CF36CE0CCF36CE0C4E08D8
:100420002000BF00080020008E1E08000130BF0021
:1004300010303A228031C51D1E2A3F220330210090
:10044000B400080020008E1A0800BF0120303A22B4
:100450008031451E012A3F228031012A21003408C3
:100460008400043004020318080090310435F23E81
:10047000820008002100CB00C7048030072B200039
:100480004908210049050319080022008D120800BF
:100490002100CD00CC00CC0DCC0D1D084C0603393D
:1004A0004C069D001D140D30890B542A00002100BC
:1004B0009D149D18592A1C08CB00CA011B08CA07A5
:1004C0000318CB0A080001309D00E0309E009F0118
:1004D0009B019C010800200046080339031D080009
:1004E0003E08031D7A2A3408400603190800400814
:1004F000B400972A3E0821003302031C08002000A4
:10050000340840060319080040083402031CB40AEA
:1005100034084002031CB4033408972280312000C1
:10052000340840061030031D962AB82CC02C210038
:10053000D6005608031DB02A22000E1755303C0085
:100540008F00AA308F000F10E0303D00A605553017
:100550003C008F00AA308F000F142600970108007E
:1005600026001708031DC82A55303C008F00AA300A
:100570008F000F103D002608E0390F38A6005530D7
:100580003C008F00AA308F000F148F302600970098
:1005900020003C08031DDC2A21005609D000D101AF
:1005A000D035D10DD035D10D500826009500210051
:1005B0005108260096000800653021005602031CF1
:1005C000E32A6430D6005608D000D101D035D10DD1
:1005D00020003C082100CA00C830CB01CC00CD016E
:1005E0001D261830D2008630D3004A085207D400A6
:1005F0004B08533DD5005408500784005508513D21
:100600008500003F26009500013F96000800CA00C3
:100610002000C90408002000380B122B0E0C890C96
:100620000139080003100E1E03140030093D0800B4
:1006300029082102031D1E2B280820020318232B42
:10064000A00A0319A10A40248031AF284B08AB004F
:100650004A08AA000800952680315F268031562678
:100660008031AB26803132268031452680313E23D1
:100670008031A3268031B2268031C72E04303E005F
:100680009B0001309C009D019E019F010230A00053
:10069000A830A100A200A30095309A00200093107A
:1006A000210093140800200047080339031D0800A7
:1006B0003E08031D622B3508410603190800410856
:1006C000B5007F2B3E0821003302031C08002000E8
:1006D000350841060319080041083502031CB50A14
:1006E00035084102031CB50335087F238031200003
:1006F000350841060830031D7E2BB82CC02C210084
:10070000D8005808031D982B22008E1755303C0046
:100710008F00AA308F000F10E0303D00A705553044
:100720003C008F00AA308F000F142C0099010800A4
:100730002C001908031DB02B55303C008F00AA3047
:100740008F000F103D002708E0390238A700553010
:100750003C008F00AA308F000F1480302C009900CD
:1007600020003D08031DBA2B210058092C009800D9
:1007700097010800653021005802031CC12B64302A
:10078000D8005808D000D101D035D10D20003D0847
:100790002100CA00C830CB01CC00CD011D2680311C
:1007A0001830D2008630D3004A085207D4004B08D4
:1007B000533DD5005408500784005508513D85002D
:1007C000003FD600013FD700D736D60CD736D60C1F
:1007D00056082C00980021005808D000D101D035CF
:1007E000D10D20003D082100CA00C830CB01CC004B
:1007F000CD011D261830D2008630D3004A0852079A
:10080000D4004B08533DD5005408500784005508C8
:10081000513D850000080339D600D60CD60C560C85
:10082000C0392C0097000800200045080339031D3B
:1008300008003E08031D232C33083F060319080057
:100840003F08B300372D3E0821003302031C080087
:10085000200033083F06031908003F083302031C39
:10086000B30A33083F02031CB30333083725803132
:10087000200033083F062030031D3F2CB82CC02C2D
:10088000200038080319080021004308031D622CCA
:100890002000320844060319512C4408B2003725C1
:1008A000803120003108430603195A2C4308B10057
:1008B000C424803120003008420603190800420891
:1008C000B000AA2DB00A43083002031C0800B00192
:1008D0002000320844060319842C4408320203180D
:1008E000722CB20A32084402031CB20332083725C4
:1008F00080312000320844060130031D822CB824C8
:100900008031842CC0248031200031084306031933
:10091000A02C4308310203188E2CB10A310843027F
:10092000031CB1033108C424803120003108430680
:100930000230031D9E2CB8248031A02CC0248031AD
:100940002000300842060319080042083002031C48
:10095000B00A30084202031CB0033008AA258031D7
:100960002000300842060430031DB72CB82CC02CE0
:100970002100CC004C09C60540303A2280313F2A84
:100980002100CA00C60408002100D6005608031D35
:10099000DD2C22000E1655303C008F00AA308F004F
:1009A0000F10E0303D00A40555303C008F00AA3008
:1009B0008F000F1425009701080025001708031D5C
:1009C000F82C55303C008F00AA308F000F103D00EE
:1009D0002408E0390D38A40055303C008F00AA30BF
:1009E0008F000F148F3025009700FF309600950080
:1009F00020003A08031D0C2D21005609D000D1011A
:100A0000D035D10DD035D10D5008250095002100ED
:100A10005108250096000800653021005602031C8D
:100A2000132D6430D6005608D000D101D035D10D39
:100A300020003A082100CA00C830CB01CC00CD010B
:100A40001D261830D2008630D3004A085207D40041
:100A50004B08533DD5005408500784005508513DBC
:100A60008500003F25009500013F96000800210009
:100A7000D6005608031D502D22008E1655303C001E
:100A80008F00AA308F000F10E0303D00A5055530D3
:100A90003C008F00AA308F000F142500930108003E
:100AA00025001308031D6B2D55303C008F00AA3024
:100AB0008F000F103D002508E0390C38A500553097
:100AC0003C008F00AA308F000F148F302500930058
:100AD000FF309200910020003B08031D7F2D210074
:100AE0005609D000D101D035D10DD035D10D5008E7
:100AF0002500910021005108250092000800653072
:100B000021005602031C862D6430D6005608D00002
:100B1000D101D035D10D20003B082100CA00C830DA
:100B2000CB01CC00CD011D261830D2008630D30079
:100B30004A085207D4004B08533DD50054085007CB
:100B400084005508513D8500003F25009100013F7C
:100B5000920008002100D6005608031DC32D220074
:100B60008E1555303C008F00AA308F000F10E030FA
:100B70003D00A30555303C008F00AA308F000F14B4
:100B800026009301080026001308031DDE2D5530B2
:100B90003C008F00AA308F000F103D002308E03981
:100BA0000E38A30055303C008F00AA308F000F1480
:100BB0008F3026009300FF3092009100200039080A
:100BC000031DF22D21005609D000D101D035D10DE1
:100BD000D035D10D50082600910021005108260083
:100BE00092000800653021005602031CF92D643084
:100BF000D6005608D000D101D035D10D20003908DB
:100C00002100CA00C830CB01CC00CD011D26183010
:100C1000D2008630D3004A085207D4004B08533D17
:100C2000D5005408500784005508513D8500003F09
:100C300026009100013F92000800CE01CF014A1C1E
:100C4000252E4C08CE074D08CF3DCC35CD0DCB36EB
:100C5000CA0C4A084B04031D1F2E4F08CB004E0838
:100C6000CA0008002000CA010C1C4A148C1CCA14BB
:100C70000C1D4A158C1DCA150C1E4A168C1ECA1650
:100C80000D1E4A174A35CA00080024009401263078
:100C9000950096019701FE30930020004A08240039
:100CA000920020009111210091150800603032005F
:100CB00099009B019D0107309F009E0108002200C2
:100CC0008C018D018E01373021008C00D0308D00D9
:100CD000FF308E0023008E0120308D008C011030FB
:100CE00024008D003F308C008E0125008C012030C7
:100CF0008D008E013C002008E0390E38A00021084C
:100D0000E0390F38A1002908E0391138A900280876
:100D1000E0391038A8003D001F08E03919389F005D
:100D20001E08E03918389E0008004030320091005B
:100D3000F230920066309300E0309400203095004D
:100D4000193096000800FF3020009E009D01911090
:100D500004309F000800163021009700080028008A
:100D60001314080004303E009100920101309300FA
:100D70009400950002309600A830970098009900E2
:100D80009530900020001310210013140800280053
:100D90009401E0309200C030910012082100AD00B3
:100DA000AC01280011082100AC042000131221001E
:100DB00013160330CA000030CB0026230130280070
:100DC00093000800F4340334EA340334DF3403348A
:100DD000D5340334CB340334C1340334B634033450
:100DE000AC340334A2340334983403348E340334E3
:100DF00083340334793403346F3403346534033477
:100E00005A34033450340334463403343C3403340A
:100E100032340334273403341D340334133403349D
:100E200009340334FE340234F4340234EA34023434
:100E3000E0340234D6340234CB340234C1340234C8
:100E4000B7340234AD340234A3340234983402345B
:100E50008E340234843402347A3402346F340234EF
:100E6000653402345B340234513402344734023482
:100E70003C34023432340234283402341E34023416
:100E80001334023409340234FF340134F5340134AC
:100E9000EB340134E0340134D6340134CC34013441
:100EA000C2340134B7340134AD340134A3340134D5
:100EB000993401348F340134843401347A34013468
:100EC00070340134663401345B34013451340134FC
:100ED000473401343D34013433340134283401348F
:100EE0001E340134143401340A340134FF34003424
:100EF000F5340034EB340034E1340034D7340034BA
:100F0000CC340034C2340034B8340034AE3400344D
:100F1000A4340034993400348F34003485340034E0
:100F20007B34003470340034663400345C34003474
:100F300052340034483400343D3400343334003407
:100F4000293400341F340034143400340A3400349B
:100F500000340034FE340334FD340334FC340334F1
:100F6000FB340334F9340334F8340334F5340334F4
:100F7000F3340334F1340334EE340334EB34033408
:100F8000E8340334E4340334E0340334DC3403342D
:100F9000D8340334D4340334CF340334CB3403345F
:100FA000C6340334C0340334BB340334B53403349F
:100FB000B0340334AA340334A43403349D340334EA
:100FC0009734033490340334893403348234033443
:100FD0007B340334733403346B34033464340334A8
:100FE0005C340334533403344B3403344234033419
:100FF0003A34033431340334283403341E34033494
:10100000153403340B34033401340334F73402341D
:10101000ED340234E3340234D9340234CE340234B1
:10102000C3340234B8340234AD340234A23402344E
:10103000963402348A3402347F34023473340234F6
:10104000673402345A3402344E34023441340234A8
:1010500034340234273402341A3402340D34023466
:1010600000340234F2340134E4340134D63401342F
:10107000C8340134BA340134AC3401349D34013401
:101080008E340134803401347134013461340134DC
:1010900052340134433401343334013423340134C1
:1010A0001334013403340134F3340034E3340034B2
:1010B000D2340034C1340034B1340034A0340034AC
:1010C0008E3400347D3400346C3400345A340034AF
:1010D00048340034373400342434003412340034BB
:1010E00000340034FE340334FE340334FD3403345E
:1010F000FC340334FB340334FA340334F93403345A
:10110000F7340334F6340334F4340334F234033460
:10111000EF340334ED340334EA340334E734033476
:10112000E4340334E0340334DD340334D934033499
:10113000D5340334D1340334CD340334C8340334C8
:10114000C3340334BE340334B9340334B334033406
:10115000AE340334A8340334A23403349C3403344F
:10116000953403348F3403348834033481340334A6
:101170007A340334723403346A340334633403340A
:101180005A340334523403344A340334413403347C
:10119000383403342F340334263403341C340334FA
:1011A0001334033409340334FE340234F434023487
:1011B000EA340234DF340234D4340234C934023421
:1011C000BE340234B2340234A63402349A340234C7
:1011D0008E3402348234023475340234683402347A
:1011E0005B3402344E34023441340234333402343A
:1011F000253402341734023409340234FB34013408
:10120000EC340134DD340134CE340134BF340134E4
:10121000B0340134A03401349034013480340134CA
:10122000703401345F3401344F3401343E340134BE
:101230002D3401341C3401340A340134F8340034C0
:10124000E7340034D4340034C2340034B0340034D1
:101250009D3400348A3400347734003464340034EC
:10126000503400343C340034283400341434003416
:1012700000340034FE340334FE340334FE340334CB
:10128000FD340334FD340334FC340334FB340334C1
:10129000FA340334F9340334F8340334F6340334C1
:1012A000F4340334F3340334F0340334EE340334CD
:1012B000EC340334E9340334E7340334E4340334E2
:1012C000E0340334DD340334D9340334D634033406
:1012D000D2340334CE340334C9340334C534033434
:1012E000C0340334BB340334B6340334B034033471
:1012F000AB340334A53403349F34033499340334BA
:10130000923403348B340334843403347D34033413
:10131000763403346E340334663403345E34033479
:10132000563403344E340334453403343C340334EC
:10133000333403342934033420340334163403346F
:101340000C34033401340334F7340234EC34023403
:10135000E1340234D5340234CA340234BE340234A7
:10136000B2340234A6340234993402348C34023458
:101370007F34023472340234643402345734023419
:10138000493402343A3402342C3402341D340234E9
:101390000E340234FF340134EF340134DF340134CD
:1013A000CF340134BF340134AE3401349E340134BF
:1013B0008C3401347B3401346A34013458340134C0
:1013C0004634013433340134213401340E340134D1
:1013D000FB340034E7340034D3340034BF340034F9
:1013E000AB34003497340034823400346D3400342C
:1013F00058340034423400342C3400341634003471
:1014000000340034FE340334FE340334FE34033439
:10141000FE340334FD340334FD340334FC3403342C
:10142000FC340334FB340334FA340334F934033426
:10143000F8340334F6340334F5340334F33403342A
:10144000F1340334EF340334ED340334EB34033438
:10145000E9340334E6340334E3340334E03403344E
:10146000DD340334D9340334D6340334D234033472
:10147000CE340334CA340334C5340334C1340334A2
:10148000BC340334B7340334B1340334AC340334E0
:10149000A6340334A03403349A340334933403342D
:1014A0008D340334863403347F3403347734033487
:1014B00070340334683403345F34033457340334F2
:1014C0004E340334463403343C340334333403346D
:1014D000293403341F340334153403340B340334F8
:1014E00000340334F5340234EA340234DE34023496
:1014F000D2340234C6340234BA340234AD34023445
:10150000A034023493340234853402347734023404
:10151000693402345B3402344C3402343D340234D6
:101520002D3402341E3402340E340234FE340134BD
:10153000ED340134DC340134CB340134BA340134B9
:10154000A8340134963401348334013471340134C5
:101550005D3401344A3401343634013422340134E8
:101560000E340134F9340034E4340034CF34003420
:10157000B9340034A33400348D340034763400346C
:101580005F340034483400343034003418340034CC
:1015900000340034FE340334FE340334FE340334A8
:1015A000FE340334FE340334FD340334FD34033499
:1015B000FD340334FC340334FB340334FB34033490
:1015C000FA340334F9340334F8340334F73403348D
:1015D000F5340334F4340334F2340334F034033494
:1015E000EE340334EC340334EA340334E8340334A3
:1015F000E5340334E2340334DF340334DC340334BD
:10160000D9340334D5340334D1340334CD340334E2
:10161000C9340334C5340334C0340334BB34033415
:10162000B6340334B1340334AB340334A634033456
:10163000A034033499340334933403348C340334A6
:10164000853403347E340334763403346E34033407
:10165000663403345E340334553403344D34033478
:10166000433403343A3403343034033426340334FB
:101670001C3403341134033406340334FB34023491
:10168000EF340234E3340234D7340234CB3402343E
:10169000BE340234B1340234A334023495340234FB
:1016A00087340234793402346A3402345B340234CD
:1016B0004B3402343B3402342B3402341A340234B7
:1016C00009340234F8340134E6340134D4340134BA
:1016D000C2340134AF3401349C34013488340134D1
:1016E00075340134603401344C34013436340134FF
:1016F000213401340B340134F5340034DE34003449
:10170000C7340034B03400349834003480340034AA
:10171000673400344E340034343400341A34003426
:1017200000340034FE340334FE340334FE34033416
:10173000FE340334FE340334FE340334FD34033406
:10174000FD340334FD340334FC340334FC340334FB
:10175000FB340334FB340334FA340334F9340334F4
:10176000F8340334F7340334F6340334F4340334F4
:10177000F3340334F1340334EF340334ED340334FD
:10178000EB340334E9340334E6340334E43403340F
:10179000E1340334DE340334DB340334D83403342B
:1017A000D4340334D0340334CC340334C834033455
:1017B000C4340334BF340334BA340334B53403348B
:1017C000AF340334AA340334A43403349E340334D2
:1017D00097340334913403348A3403348334033428
:1017E0007B340334733403346B3403346334033491
:1017F0005A34033451340334483403343E3403340C
:10180000343403342A340334203403341534033499
:101810000A340334FE340234F2340234E63402343F
:10182000D9340234CC340234BF340234B1340234FB
:10183000A3340234943402348634023476340234CD
:1018400067340234573402344634023435340234B7
:10185000243402341234023400340234EE340134BD
:10186000DB340134C7340134B43401349F340134DF
:101870008B34013476340134603401344A34013419
:10188000333401341D34013405340134ED34003473
:10189000D5340034BC340034A334003489340034EB
:1018A0006E34003454340034383400341C34003482
:1018B000003400349431992C9431A22C9431A72C0B
:1018C0009431AC2C9431B42C95316E2D95316E2D14
:1018D00095316E2D9431B82C9431BB2C9431BE2CA3
:1018E0009431C12C9431C42C9431C72C9431CA2C1E
:1018F0009431CD2C9431D02C9431D32C9431D62CDE
:101900009431D92C9431DC2C9431DF2C9431E22C9D
:101910009431E52C9431E82C9431EB2C9431EE2C5D
:101920009431F12C9431F62C9431FC2C9531052D09
:101930009531162D9531272D95312B2D95316E2D05
:1019400095316E2D95316E2D95316E2D95316E2D13
:1019500095312E2D9531372D9531402D9531492DCD
:101960009531522D95315B2D95316E2D95316E2D22
:1019700095316E2D95315C2DFF3FFF3F48082100CA
:10198000BD000130BD0520004836B7000130B70565
:101990004808F000F036F03670082100BE00013033
:1019A000BE0520004808F000F036F036F03670082A
:1019B0002100BF000130BF052000480E0F39CB00C9
:1019C0000130CB054808F0000530F036890BE52CD6
:1019D0007008B8000130B8054808F0000630F0364D
:1019E000890BEF2C70082100C0000130C0052000D9
:1019F0004808F0000730F036890BFB2C70082100F6
:101A0000C1000130C10508004B0B0C2D0E1C8E18B7
:101A10000C2D1C258D310D2DA125200093100800C3
:101A20004B0B182D0E1C8E18182DA1258D31192D3C
:101A30001C2520001310080021002F0B272D29083A
:101A40002102031D252D28082002031C0800A001E7
:101A5000A101AF013D08031D572D20002C082007D0
:101A6000D4002D08213DD5002E08223DD6002F0898
:101A7000233DD700AF005608AE005508AD0054080E
:101A8000AC00083027268D312B08803AD4002F086F
:101A9000803A5402031D882D2E082A02031D882D2A
:101AA0002D082902031D882D2C082802882D2000CE
:101AB0002308F3002208F2002108F1002008F000BA
:101AC0002F08F7002E08F6002D08F5002C08F4006A
:101AD0008C268D3173082000AF007208AE007108AB
:101AE000AD007008AC00083027268D312B08F300BC
:101AF0002A08F2002908F1002808F0002F08F70052
:101B00002E08F6002D08F5002C08F4002A268D3149
:101B100003189F2D203027268D31370B972D27084E
:101B2000AF002608AE002508AD0024089E2D2B0826
:101B3000AF002A08AE002908AD002808AC00DB275A
:101B4000080021002F08031DAD2D29082102031DC7
:101B5000AB2D28082002031C0800A001A101AF0141
:101B6000AF0A3D08031DDE2D200020082C02DC00FA
:101B700021082D3BDD0022082E3BDE0023082F3BF1
:101B8000DF00AF005E08AE005D08AD005C08AC0091
:101B9000103027268D312F08803ADC002708803A44
:101BA0005C02031D0E2E26082E02031D0E2E250894
:101BB0002D02031D0E2E24082C020E2E20002308B9
:101BC000D7002208D6002108D5002008D4002F080D
:101BD000DB002E08DA002D08D9002C08D800E327F6
:101BE0008D315708AF005608AE005508AD005408B7
:101BF000AC00103027268D312F08F3002E08F2009C
:101C00002D08F1002C08F0002708F7002608F60040
:101C10002508F5002408F4002A268D310318252E06
:101C2000403027268D31370B1D2E2B08AF002A0898
:101C3000AE002908AD002808242E2708AF0026088A
:101C4000AE002508AD002408AC00DB270800F0003A
:101C5000C90408008030F801F9017205FA007F30EC
:101C60007305FB007A0479047804031D3B2EF00110
:101C7000F101F201F3018030F801F9017605FA0073
:101C80007F307705FB007A0479047804031D4C2E1D
:101C9000F401F501F601F701F31F632E8030F8011E
:101CA000F901FA01FB007008F8027108F93B7208AB
:101CB000FA3B7308FB3B7B08F3007A08F2007908D3
:101CC000F1007808F000F71F7A2E8030F801F90152
:101CD000FA01FB007408F8027508F93B7608FA3B34
:101CE0007708FB3B7B08F7007A08F6007908F500D7
:101CF0007808F4008030F306F70677087302031DB6
:101D0000080076087202031D080075087102031DA1
:101D100008007408700208007308F8008030F805A5
:101D20007335FA00F21B7A147A0803199F2E7A0F82
:101D30009D2EF001F101F201F301F217A22EF00144
:101D4000F101F201F3017708F9008030F905790813
:101D50007806031D78177735F900F61B7914790892
:101D60000319BA2E790FB82EF401F501F601F70127
:101D7000F617BD2EF401F501F601F7017A08790294
:101D80000318E42E781FC62E8030F8067A08FB0070
:101D90007908FA007B08F9007008FB007408F0006D
:101DA0007B08F4007108FB007508F1007B08F50062
:101DB0007208FB007608F2007B08F6007308FB004F
:101DC0007708F3007B08F700FB017908CC00CD0110
:101DD0004D08CF007A084C02CE00031CCF034F08F9
:101DE000803AD00080305002031DF82E1A304E0287
:101DF000031C192F73087204710470040319022F55
:101E00000130032F0030FB00F001F101F201F3017A
:101E10007908FA001D2F7B1C112F7B360138FB003F
:101E2000122FFB367018FB17F337F20CF10CF00C85
:101E3000FA0A79087A02031C0B2F781B402F7A08C4
:101E4000031D272FF001F101F201F30108007408CE
:101E5000F0077508F13D7608F23D7708F33D731CF5
:101E6000A92F7B1C372F7B360138FB00382FFB3620
:101E70007018FB17F337F20CF10CF00CFA0AA92FCB
:101E80007308803A2000CC007708803A4C02031D8A
:101E9000532F76087202031D532F75087102031D1C
:101EA000532F740870020318822FFF30CC00CD002E
:101EB000CE00CF0070087402D0007108753BD100CD
:101EC0007208763BD2007308773BD3005008CC07EA
:101ED0005108CD3D5208CE3D5308CF3D4F08F30089
:101EE0004E08F2004D08F1004C08F0008030F80672
:101EF000FB09FB0F8A2F0130F0070030F13DF23D66
:101F0000F33D8A2F7408F0027508F13B7608F23B26
:101F10007708F33B7308720471047004031DA72F44
:101F20007B08031DA72FF001F101F201F301080066
:101F3000F035F10DF20DF30DFB1B70147B1CA32F7C
:101F40000314FB0DA42FFB357A08031DFA03F21FBF
:101F5000982FF901FB1FB42F7B087F3903197018E4
:101F6000B22FB42FF901F90A79080319C52F0130EE
:101F7000F0070030F13DF23DF33D731CC52FF33700
:101F8000F20CF10CF00C7A0FFA0A7A0A031D7A08A7
:101F9000031DD12FF001F101F201F3017A080319B9
:101FA000F8017A1CD52FF217D62FF2137A36F300E8
:101FB000F81BF31708004908210049050319080018
:101FC00022008D1208008030D7065B08F3005A0803
:101FD000F2005908F1005808F0005708F7005608B9
:101FE000F6005508F5005408F4008C26730820000C
:101FF000D7007208D6007108D5007008D400080018
:102000009331452B9331482B93314B2B93314E2BEE
:102010009331562B9331582B93315F2B9331632B94
:102020009331652B93316B2B9331732B93317C2B35
:102030009331862B9331892B93318C2B93318F2BBA
:102040009331922B9331952B9331982B93319B2B7A
:1020500093319E2B9331A12B9331A42B9331A72B3A
:102060009331AA2B9331AD2B9331B02B9331B32BFA
:102070009331B62B9331B92B9331BF2B9331C12BB5
:102080009331C32B9331C52B9331542B9331542B64
:102090009331542B9331542B9331542B9331C82BC0
:1020A0009331CB2B9331CE2B9331D12B9331D42B36
:1020B0009331C82B9331542B9331542B9331542BA0
:1020C0009331D72B9331542B9331542B9331542B81
:1020D0009331542B9331542B9331542B9331542BF4
:1020E0009331542B9331542B9331542B9331542BE4
:1020F0009331542B9331542B9331542B9331542BD4
:102100009331542B9331542B9331542B9331542BC3
:102110009331542B9331542B9331542B9331542BB3
:102120009331542B9331542B9331542B9331542BA3
:102130009331542B9331542B9331542B9331542B93
:102140009331542B9331542B9331542B9331542B83
:102150009331542B9331542B9331542B9331542B73
:102160009331542B9331542B9331542B9331542B63
:102170009331542B9331542B9331542B9331542B53
:102180009331542B9331542B9331542B9331542B43
:102190009331542B9331542B9331542B9331542B33
:1021A0009331542B9331542B9331542B9331542B23
:1021B0009331542B9331542B9331542B9331542B13
:1021C0009331D92B9331DB2B8031BF288031C92843
:1021D0008031D1288031D9288031E7288031F72813
:1021E000813104298131EE298231052A8231132A75
:1021F0008231222AFF3FFF3FFF3FFF3FFF3FFF3F6C
:1022000081319E298131B5298131C3298131D2297A
:102210008131532981316A29813178298131862997
:102220009331132B9331302B9331252B9331422B48
:102230009731092F9731262F97312D2F9731342F32
:102240009631242E9631412E9631482E96314F2EBE
:102250009531AB2D9531C82D9531CF2D9531D62D9A
:10226000640080010131890B31290034C801C80A9A
:102270000800FF3FFF3FFF3FFF3FFF3FFF3FFF3FA4
:10233000240094012630950096019701FE30930009
:1023400020004A08240092002000911121009115DC
:10235000080003304605F000700B08004008031D1C
:10236000B42922000E13080022000E1701302000AD
:10237000C0000800240095019601940126309500C4
:10238000013096009701FE30930020004A08240097
:10239000920020009111210091150800380BD129DD
:1023A000080003304505F000700B08003F08031DCE
:1023B000DC2922008E12080022008E160130200037
:1023C000BF000800F10031009518E32915177108C6
:1023D00091007030920094017008930003108B1BE1
:1023E00003148B13151555309600AA3096009514DA
:1023F0009518F829151103188B17080013122100DE
:102400002D08F1002C08F00012229131072A21003A
:102410002A082B04031908002B088A002A080A003E
:10242000923108002800131D1C2A13107108920015
:102430007008910013140800710892007008910050
:10244000080020003803031D282A8C2292312A2AF2
:10245000C522923121003E0B412A55303C008F00AD
:10246000AA308F000F102908E0391138A900280878
:10247000E0391038A80055308F00AA308F000F14B3
:10248000542A55303C008F00AA308F000F102908C5
:10249000E0391038A9002808E0391138A800553073
:1024A0008F00AA308F000F1421003F0B5A2A2400FE
:1024B0008D125C2A24008D1622008D1620004B0BF5
:1024C000662A1310210013109D306A2A1310210070
:1024D000131095303E00900021001314200093103B
:1024E000210093103E009A00210093143D08031D23
:1024F000802A01302000A000A101A201A301872AA7
:102500003F302000A3008030A200A101A0012100E3
:10251000410B08000100080023008E1125008E11D8
:1025200024008E1121008E1123000E1225000E12A0
:1025300024000E1221000E1223008E1225008E128E
:1025400021008E1255303C008F00AA308F000F10F2
:102550003D002508E0390C38A5002408E0390D3885
:10256000A4002308E0390E38A30055303C008F004A
:10257000AA308F000F1423000E1121000E15973181
:1025800066279231DC229231E72A23000E122400C2
:102590000E1621000E1623008E1125008E1121002B
:1025A0008E1122008E112500970126009301230031
:1025B0000E1121000E1508008F3097000330960091
:1025C000FF3095001F08F33904389F0008008F3052
:1025D0002600930003309200FF30910025001F0871
:1025E000CF3910389F0008009111240011082000F5
:1025F000D2002400141D032B941A161F012B033044
:102600000C2B01300C2B941A072B00300C2B2000C4
:1026100052082100DA0002301023240015160800A9
:102620002000D100382B2100B801B80A08005A0850
:10263000BB002E2B5A082000CF0021003B0894310C
:10264000962492312100BB0A2E2B21003808003A33
:1026500003191A2B013A0319172B1A2BB80108007A
:1026600021003B084323240091002100BB0A0800FD
:102670005108840004300402031808009131043525
:10268000103E82000800F100DE2B20004808DC2B01
:1026900020004708DC2B20004608DC2B20003808EF
:1026A000031D542B4508DC2BF201E82B4908DC2BD9
:1026B00020004908F200C90122008D16E82B4708C6
:1026C000F200C701E82B4608DC2B20002F08F2009F
:1026D000360BE82B842B20002E08F200360BE82B5B
:1026E000AF01AE01E82B20002D08F200360BE82BDD
:1026F000AF01AE01AD01E82B20002C08F200360B33
:10270000E82BAC01AD01AE01AF01E82B20002B0896
:10271000DC2B20002A08DC2B20002908DC2B2000E1
:102720002808DC2B20002708DC2B20002608DC2BC7
:1027300020002508DC2B20002408DC2B20002308A7
:10274000DC2B20002208DC2B20002108DC2B2000C1
:102750002008DC2B20004408DC2B20004308DC2B65
:1027600020004208DC2B20004108DC2B2000400820
:10277000DC2B20003808031D542B3F08DC2B4508B8
:10278000DC2B4408DC2B4308DC2B20003E08DC2B30
:1027900020003B08DC2B20003A08DC2B2000390805
:1027A000DC2B20003D08DC2B20003C08DC2B420801
:1027B000DC2B5330DC2B2230F200E82B7108840034
:1027C000723004020318542B90310435003E82000D
:1027D00080307102031CF62B21004008031DF32BEF
:1027E0007108803EF42B7108F823F200720808008B
:1027F000F000FB2B2100640031009518FA2B15170F
:102800007008910070309200151413080800200021
:10281000CC004C08031D202C22008E1755303C00A4
:102820008F00AA308F000F10E0303D00A705553013
:102830003C008F00AA308F000F142C009901080073
:102840002C001908031D382C55303C008F00AA308D
:102850008F000F103D002708E0390238A7005530DF
:102860003C008F00AA308F000F1480302C0099009C
:1028700020003D08031D412C4C092C0098009701B5
:10288000080065304C02031C472C6430CC004C0817
:10289000F600F701F635F70D3D08F000C830F101FC
:1028A000F200F301842594311830F8008630F900E5
:1028B00070087807FA007108793DFB007A087607FE
:1028C00084007B08773D8500003FFC00013FFD0050
:1028D000FD36FC0CFD36FC0C7C082C00980020001A
:1028E0004C08F600F701F635F70D3D08F000C8304A
:1028F000F101F200F30184251830F8008630F90068
:1029000070087807FA007108793DFB007A087607AD
:1029100084007B08773D850000080339FC00FC0C2F
:10292000FC0C7C0CC0392C00970008002000D00063
:10293000642D4F08C8008C31BE249431923121227D
:1029400094316E2D4F08C700992594316E2D4F0894
:10295000C600122694316E2D3808031D6E2D4F08C7
:10296000C500F72694316E2D4F082100C9006E2D49
:102970004F08AF006E2D4F08AE006E2D4F08AD0012
:102980006E2D4F08AC006E2D4F08AB006E2D4F081A
:10299000AA006E2D4F08A9006E2D4F08A8006E2DBD
:1029A0004F08A7006E2D4F08A6006E2D4F08A500FA
:1029B0006E2D4F08A4006E2D4F08A3006E2D4F08FA
:1029C000A2006E2D4F08A1006E2D4F08A0006E2DA5
:1029D0004F08C4006E2D4F08C3006E2D4F08C20073
:1029E0006E2D4F08C100EF2794316E2D4F08C000A7
:1029F0009131A92194316E2D3808031D6E2D4F0899
:102A0000BF009131CE2194316E2D4F082100C500B9
:102A10004508F0000A30F101F200F30184259431F9
:102A200071082100A9007008A8006E2D4F08210030
:102A3000C4004408F0000A30F101F200F3018425DB
:102A4000943171082100A7007008A6006E2D4F0870
:102A50002100C3006E2D4F08BE006E2D4F08BB0035
:102A600009303B02031C6E2D0830BB006E2D4F0851
:102A7000BA0009303A02031C6E2D0830BA006E2DE0
:102A80004F08B90009303902031C6E2D0830B90017
:102A90006E2D4F08BD0009303D02031C6E2D08301D
:102AA000BD006E2D4F08BC0009303C02031C6E2D8A
:102AB0000830BC006E2D2E2D4F082100C200E527E6
:102AC0009431DD2794316E2D50088400313004029A
:102AD00003186E2D8C3104355A3E82008030200060
:102AE0005002031C080021004008031D7E2D200019
:102AF0004F08F0005008803E9131E22920004F0835
:102B0000F00050089131E229F401F501701C8C2D80
:102B10007208F4077308F53DF235F30DF136F00C49
:102B200070087104031D862D7508F1007408F0000B
:102B300008002C00990155303C008F00AA308F000E
:102B40000F10E0303D00A70555303C008F00AA3043
:102B50008F000F14DB2D23008E1322008E1721000F
:102B60008E1355303C008F00AA308F000F103D00AF
:102B70002708E0390238A70055303C008F00AA3002
:102B80008F000F1408269431003007249431F52D5E
:102B900023008E1321008E1325008E13F52D2100A6
:102BA0008E1723008E1732009312F52D23008E13FB
:102BB00021008E17F52D200047080339CD00CE01E6
:102BC0004E08003A0319E52DF52D4D088400043018
:102BD00004020318F52D91310435283E82002400AB
:102BE0008E13080024008E170800200047080439BF
:102BF000CD00CE014E08003A0319FF2D072E4D08D7
:102C0000003A0319EF2D043A0319F22D072E08009C
:102C100080302C009900980197011F08FC39013879
:102C20009F0008002600970155303C008F00AA3015
:102C30008F000F10E0303D00A60555303C008F009E
:102C4000AA308F000F14542E23000E1322000E17EB
:102C500021000E1355303C008F00AA308F000F105A
:102C60003D002608E0390F38A60055303C008F00A3
:102C7000AA308F000F148126943100308E269431B3
:102C80006E2E23000E1321000E1325000E136E2E40
:102C900021000E1723000E17320093126E2E230010
:102CA0000E1321000E176E2E200046080339CC00AB
:102CB000CD014D08003A03195E2E6E2E4C0884009B
:102CC0000430040203186E2E91310435203E820038
:102CD00024000E13080024000E17080020004608E8
:102CE0000439CC00CD014D08003A0319782E802E0E
:102CF0004C08003A0319682E043A03196B2E802EF3
:102D000008008F302600970003309600FF309500B2
:102D100025001F083F3940389F000800FC007C0850
:102D2000031DA62E22000E1755303C008F00AA303E
:102D30008F000F10E0303D00A60555303C008F009D
:102D4000AA308F000F1426009701080026001708EC
:102D5000031DBE2E55303C008F00AA308F000F108F
:102D60003D002608E0390F38A60055303C008F00A2
:102D7000AA308F000F148F302600970020003C08E7
:102D8000031DCF2E7C09F600F701F635F70DF63559
:102D9000F70D760826009500770896000800653044
:102DA0007C02031CD52E6430FC007C08F600F70181
:102DB000F635F70D3C08F000C830F101F200F301E0
:102DC00084251830F8008630F90070087807FA007A
:102DD0007108793DFB007A08760784007B08773D0F
:102DE0008500003F26009500013F96000800250061
:102DF000930155303C008F00AA308F000F10E03057
:102E00003D00A50555303C008F00AA308F000F14FF
:102E1000392F23008E1222008E1621008E1255307B
:102E20003C008F00AA308F000F103D002508E039CC
:102E30000C38A50055303C008F00AA308F000F14CD
:102E400066279431003072279431532F23008E125D
:102E500021008E1225008E12532F21008E16230082
:102E60008E1632009312532F23008E1221008E16DD
:102E7000532F200045080339CC00CD014D08003AFE
:102E80000319432F532F4C08840004300402031805
:102E9000532F91310435183E820024008E12080011
:102EA00024008E160800200045080439CC00CD010E
:102EB0004D08003A03195D2F652F4C08003A03199D
:102EC0004D2F043A0319502F652F08008F3025002D
:102ED000930003309200FF3091001F08FC39013845
:102EE0009F000800FC007C08031D8A2F22008E161C
:102EF00055303C008F00AA308F000F10E0303D00AD
:102F0000A50555303C008F00AA308F000F14250016
:102F1000930108001308031DA42F55303C008F00B7
:102F2000AA308F000F103D002508E0390C38A500AD
:102F300055303C008F00AA308F000F148F302500D1
:102F40009300FF309200910020003B08031DB52F35
:102F50007C09F600F701F635F70DF635F70D760822
:102F60002500910077089200080065307C02031C60
:102F7000BB2F6430FC007C08F600F701F635F70D36
:102F80003B08F000C830F101F200F301842518304D
:102F9000F8008630F90070087807FA007108793D6A
:102FA000FB007A08760784007B08773D8500003FA8
:102FB00025009100013F9200080021003C0BE22F08
:102FC0009131BA299131982108004208BC000130A2
:102FD000BC0542362000B6000130B60508000330BB
:102FE0004705F000700B08004108031DFA2F22006E
:102FF0008E13080022008E1701302000C100080047
:020000040001F9
:08000E008CFFF2F7FFDFFFFF9A
:00000001FF
