:020000040000FA
:1000000080313028FF3FFF3F7E1480310B1F2E28A8
:100010002100931C12282000931C122884313024C4
:1000200080312E282100131C1C282000131C1C28A2
:100030008431342480312E282100911D262820006F
:10004000911D26288B31942380312E282100131EE8
:100050002E282000131E2E288B31AE237E1009007F
:10006000803132285530E8002030FC01FD01840049
:100070000030850034308B3152238031A030840031
:100080000030850016308B31522380317E102000E5
:100090004928E92380318B170B1748302100B6001F
:1000A0000B30B700E42380316B208E150E168E16B0
:1000B0000E178E178B314B23803168208031210041
:1000C000350B5F28B5019F208031B12080315F283A
:1000D00022008D160800FD01FC012000CF01D10196
:1000E000D201CE01AC01AD01AE01AF01A801A90161
:1000F000AA01AB01A401A501A601A7010130A0003E
:10010000A101A201A301CC01CB01CA01C901C8010F
:10011000C701C201C101C001BF01BE012100B4017C
:100120002000BD01BC011930C600C501C401C301D6
:10013000FA30B000B1012100A401A501080020009F
:10014000310821002102031DA928200030082100C8
:1001500020020318AE28A00A0319A10A74228031D4
:10016000E7292B23803170238031AA23803120009E
:100170003508B50A2100BC002000430821003C02DC
:10018000031CC4282000B50121003208B20ABC00BB
:100190000B303C02031C0800B201D220803119212F
:1001A000803166290E2903307C05BA00023A031D0E
:1001B000DC28B101B10ADF2903307C05BA00033A1B
:1001C000031D080002302100B10008001730C421CF
:1001D0003608BA003708BB00BB36BA0CBB36BA0CBF
:1001E0003A082000C900080020008E1F08000130D6
:1001F000C900B6218031FC1DFE28BC21033021003E
:10020000B100080020008E1B0800C9010230B62191
:1002100080317C1EE228BC218031E2283108840034
:10022000043004020318080088310435603E82005F
:1002300008005A290330200050052100BA00023A74
:10024000031D2529B001B00ADF2903302000500525
:100250002100BA00033A031D080002302100B0005B
:1002600008001630C4213608BA003708BB00BB3678
:10027000BA0CBB36BA0C3A082000C80008002000AF
:100280000E1F08000130C8000430B6218031D01D97
:100290004A29BC2103302100B000080020000E1BB9
:1002A0000800C8010830B6218031501E2D29BC211C
:1002B00080312D2921003008840004300402031805
:1002C000080088310435583E820008002000400BA9
:1002D000AA290800033020004F052100BA00023A85
:1002E000031D7529AF01AF0ADF29033020004F0538
:1002F0002100BA00033A031D080002302100AF00BC
:1003000008001530C4213608BA003708BB00BB36D8
:10031000BA0CBB36BA0C3A082000C700080020000F
:100320008E1E08000130C7001030B6218031CF1D6D
:100330009A29BC2103302100AF00080020008E1A4A
:100340000800C7012030B62180314F1E7D29BC2115
:1003500080317D2921002F08840004300402031815
:10036000080088310435503E820008002100B700A3
:100370002000CE048030622A200052085105031963
:10038000080022008D1208002100B900B800B80D45
:10039000B80D1D083806033938069D001D140D30B0
:1003A000890BD029000021009D149D18D5291C0817
:1003B000B700B6011B08B6070318B70A08000130DA
:1003C0009D00E0309E009F019B019C0108002100E0
:1003D00023082502031DEE29220824020318F3290D
:1003E0000430AE003B2AA20A0319A30A3B2AA20149
:1003F000A30146228031013A031D0800AE01AE0A76
:10040000080046228031003A031D08000230AE0089
:10041000080046228031013A031D08000330AE0077
:10042000080046228031003A031D08000430A20172
:10043000A301AE01622280311F2A0530AE00BC2923
:100440000230A201A3016222803146228031013AAA
:1004500003191D2A0130AE01622280311F2AA20138
:10046000A30146228031003A031D08000130AE018D
:10047000622280311F2A2E088400063004020318ED
:10048000080088310435443E82000800672280312C
:10049000013A031D572A21002D08AD0A803A4E3E2D
:1004A000031C602A3230AD00AA01AA0A602A21008A
:1004B0002D08AD03803A7F3E0318602AAD01AA01E2
:1004C0002A0808002100B6002000D20408002000FD
:1004D000400B6E2A0E0C890C0139080003100E1E09
:1004E00003140030093D08002000400803190800EB
:1004F0004408031D942A34084C060319832A4C0827
:10050000B4000B238031200033084B0603198C2ADA
:100510004B08B300FB228031200032084A06031941
:1005200008004A08B2001B2B2100AC0A2000440836
:1005300021002C02031C0800AC01200034084C06EA
:100540000319B92A4C0834020318A72AB40A34083C
:100550004C02031CB40334080B2380312000340800
:100560004C060130031DB72AED228031B92AF6224C
:100570008031200033084B060319D52A4B0833027B
:100580000318C32AB30A33084B02031CB30333080E
:10059000FB228031200033084B060230031DD32A92
:1005A000ED228031D52AF6228031200032084A0619
:1005B000031908004A083202031CB20A32084A0230
:1005C000031CB20332081B238031200032084A0684
:1005D0000430031DEC2AED2AF62A2100B800380960
:1005E0002000CD054030B6218031BC292100B60065
:1005F0002000CD0408002100B6002500960121004E
:1006000036092500950021003608031D092B0E161A
:1006100008000E1208002100B600250092012100FA
:1006200036092500910021003608031D192B8E166E
:1006300008008E1208002100B60026009201210059
:1006400036092600910021003608031D292B8E153E
:1006500008008E1108007C080339031D08002000E3
:100660004308031D3A2B38084906031908004908B6
:10067000B800552B43083502031C0800380849060A
:100680000319080049083802031CB80A380849024F
:10069000031CB80338085523803120003808490668
:1006A0000830031D542BED2AF62A2100B700B600AE
:1006B000B636B63636083F392C0098002100370888
:1006C0000339B600B60CB60C360CC0392C009700B6
:1006D00021003708031D6E2B8E1708008E130800AB
:1006E000200050080339031D08004308031D7F2B19
:1006F00037084806031908004808B7009A2B430832
:100700003502031C0800370848060319080048088A
:100710003702031CB70A37084802031CB70337081F
:100720009A2380312000370848061030031D992B8A
:10073000ED2AF62A2100B60026009601210036098E
:100740002600950021003608031DA82B0E1708006F
:100750000E13080020004F080339031D080043084A
:10076000031DB92B36084706031908004708B600D1
:10077000D42B43083502031C08003608470603192A
:10078000080047083602031CB60A36084702031C55
:10079000B6033608D42380312000360847062030BF
:1007A000031DD32BED2AF62A2100B6002500920165
:1007B000210036092500910021003608031DE22B97
:1007C0008E1608008E1208003708A7003608A6000B
:1007D00008008B31602380318B31D1238031272475
:1007E0008B314E23803114248B316E238031FF23D3
:1007F0008B31582380318B317F238731E22F0430B6
:100800003E009B0001309C009D019E019F01023033
:10081000A000A830A100A200A30095309A002000FB
:1008200093102100931408002000D3010C1C5314D2
:100830008C1CD3140C1D53158C1DD3150C1E531674
:100840008C1ED3160D1E53175335D300080060308D
:10085000320099009B019D0107309F009E01080016
:10086000C024200093100800382420001310080032
:1008700021002B0B472C2000310821002102031DF1
:10088000452C2000300821002002031C0800A00194
:10089000A101AB0120003C08031D772C2C08200788
:1008A000DC002D08213DDD002E08223DDE002F0852
:1008B000233DDF00AF005E08AE005D08AD005C08C0
:1008C000AC000830492584312B08803ADC002F0821
:1008D000803A5C02031DA72C2E082A02031DA72CB8
:1008E0002D082902031DA72C2C082802A72C230859
:1008F000F3002208F2002108F1002008F0002F0880
:10090000F7002E08F6002D08F5002C08F400AE259F
:10091000843173082000AF007208AE007108AD008A
:100920007008AC000830492584312B08F3002A08F0
:10093000F2002908F1002808F0002F08F7002E081F
:10094000F6002D08F5002C08F4004C25843103181E
:10095000BE2C2030492584313D0BB62C2708AF0032
:100960002608AE002508AD002408BD2C2B08AF00DA
:100970002A08AE002908AD002808AC00FD260800B2
:1009800021002B08031DD02C20003108210021025A
:10099000031DCE2C2000300821002002031C08007B
:1009A000A001A101AB01AB0A20003C08031D012DF1
:1009B00020082C02E40021082D3BE50022082E3BF4
:1009C000E60023082F3BE700AF006608AE0065088D
:1009D000AD006408AC001030492584312F08803AFE
:1009E000E4002708803A6402031D302D26082E02F9
:1009F000031D302D25082D02031D302D24082C0247
:100A0000302D2308DF002208DE002108DD00200849
:100A1000DC002F08E3002E08E2002D08E1002C087E
:100A2000E000042784315F08AF005E08AE005D0877
:100A3000AD005C08AC001030492584312F08F3006C
:100A40002E08F2002D08F1002C08F0002708F7000E
:100A50002608F6002508F5002408F4004C2584310A
:100A60000318472D4030492584313D0B3F2D2B087D
:100A7000AF002A08AE002908AD002808462D270837
:100A8000AF002608AE002508AD002408AC00FD2606
:100A90000800F000D20408008030F801F901720566
:100AA000FA007F307305FB007A0479047804031D93
:100AB0005D2DF001F101F201F3018030F801F9013F
:100AC0007605FA007F307705FB007A047904780414
:100AD000031D6E2DF401F501F601F701F31F852DBD
:100AE0008030F801F901FA01FB007008F802710882
:100AF000F93B7208FA3B7308FB3B7B08F3007A086A
:100B0000F2007908F1007808F000F71F9C2D803082
:100B1000F801F901FA01FB007408F8027508F93BC5
:100B20007608FA3B7708FB3B7B08F7007A08F6006B
:100B30007908F5007808F4008030F306F7067708A6
:100B40007302031D080076087202031D0800750871
:100B50007102031D08007408700208007308F80091
:100B60008030F8057335FA00F21B7A147A080319FD
:100B7000C12D7A0FBF2DF001F101F201F301F2173F
:100B8000C42DF001F101F201F3017708F900803082
:100B9000F90579087806031D78177735F900F61BF3
:100BA000791479080319DC2D790FDA2DF401F50198
:100BB000F601F701F617DF2DF401F501F601F70153
:100BC0007A0879020318062E781FE82D8030F8067F
:100BD0007A08FB007908FA007B08F9007008FB002E
:100BE0007408F0007B08F4007108FB007508F10040
:100BF0007B08F5007208FB007608F2007B08F6001F
:100C00007308FB007708F3007B08F700FB01790805
:100C1000D400D5015508D7007A085402D600031C29
:100C2000D7035708803AD80080305802031D1A2E87
:100C30001A305602031C3B2E7308720471047004B0
:100C40000319242E0130252E0030FB00F001F101A4
:100C5000F201F3017908FA003F2E7B1C332E7B361C
:100C60000138FB00342EFB367018FB17F337F20CFB
:100C7000F10CF00CFA0A79087A02031C2D2E781B6D
:100C8000622E7A08031D492EF001F101F201F301F1
:100C900008007408F0077508F13D7608F23D770802
:100CA000F33D731CCB2E7B1C592E7B360138FB0089
:100CB0005A2EFB367018FB17F337F20CF10CF00CC0
:100CC000FA0ACB2E7308803A2000D4007708803AC5
:100CD0005402031D752E76087202031D752E7508C9
:100CE0007102031D752E740870020318A42EFF30C4
:100CF000D400D500D600D70070087402D80071085F
:100D0000753BD9007208763BDA007308773BDB004D
:100D10005808D4075908D53D5A08D63D5B08D73D39
:100D20005708F3005608F2005508F1005408F00087
:100D30008030F806FB09FB0FAC2E0130F0070030C5
:100D4000F13DF23DF33DAC2E7408F0027508F13B25
:100D50007608F23B7708F33B730872047104700461
:100D6000031DC92E7B08031DC92EF001F101F201FC
:100D7000F3010800F035F10DF20DF30DFB1B7014BB
:100D80007B1CC52E0314FB0DC62EFB357A08031DF4
:100D9000FA03F21FBA2EF901FB1FD62E7B087F390A
:100DA00003197018D42ED62EF901F90A79080319FF
:100DB000E72E0130F0070030F13DF23DF33D731CAA
:100DC000E72EF337F20CF10CF00C7A0FFA0A7A0ADC
:100DD000031D7A08031DF32EF001F101F201F30166
:100DE0007A080319F8017A1CF72EF217F82EF2137D
:100DF0007A36F300F81BF31708005208510503195F
:100E0000080022008D1208008030DF066308F3001E
:100E10006208F2006108F1006008F0005F08F70066
:100E20005E08F6005D08F5005C08F400AE25730866
:100E30002000DF007208DE007108DD007008DC00B1
:100E40000800F100762F7D08742F7C08742F50085D
:100E5000742F4008031D2E2F4F08742FF201802F8E
:100E60005108742F5208F2000130BA00802F4E084A
:100E7000F2000130B900802F4D08742F2F08742F15
:100E80002E08742F2D08742F2C08742F2B08742F04
:100E90002A08742F2908742F2808742F2708742F04
:100EA0002608742F2508742F2408742F2308742F04
:100EB0002208742F2108742F2008742F4C08742FD7
:100EC0004B08742F4A08742F4908742F4808742F50
:100ED0004008031D2E2F4708742F4608742F45081D
:100EE000742F4408742F4308F200802F7108840087
:100EF0002230040203182E2F88310435003E820070
:100F000080307102031C8D2F4108031D8A2F710848
:100F1000803E8B2F71088F27F20072080800F000C6
:100F2000922F2000640031009518912F151770083A
:100F30009100703092001514130808008C314A2C6F
:100F40008C31512C8C31562C8C315B2C8C31632C98
:100F50008C31E02C8C31E02C8C31E02C8C31662CE7
:100F60008C31692C8C316C2C8C316F2C8C31722C27
:100F70008C31752C8C31782C8C317B2C8C317E2CE7
:100F80008C31812C8C31842C8C31872C8C318A2CA7
:100F90008C318D2C8C31902C8C31932C8C31962C67
:100FA0008C31992C8C319C2C8C319F2C8C31A42C25
:100FB0008C31A92C8C31B12C8C31C02C8C31D02CA3
:100FC0008C31D32C28009401E0309200C030910085
:100FD00012082100A900A801280011082100A80476
:100FE0002000131221001316FE30B6000730B700A0
:100FF0008331E42301302800930008000800FF3FFC
:101000008731232F8731252F8731272F8731292FAC
:101010008731302F8731322F8731372F87313C2F5F
:1010200087313E2F8731402F8731422F8731442F20
:101030008731462F8731482F87314A2F87314C2FF0
:1010400087314E2F8731502F8731522F8731542FC0
:101050008731562F8731582F87315A2F87315C2F90
:1010600087315E2F8731602F8731622F8731642F60
:101070008731662F8731682F87316D2F87316F2F2A
:101080008731712F8731732F8131F7298231012AFE
:101090008231092A8231112A8231202A82312F2A73
:1010A00081316A298131812981318F2981319E29BC
:1010B00081311A298131312981313F2981314E29EC
:1010C0008031D3288031E6288031F428813102290B
:1010D0008C31092C8C31262C8C311A2C8C312F2CF4
:1010E0008E312A2E8E31472E8E314E2E8E31522E3B
:1010F0008D31A42D8D31C12D8D31C82D8D31CC2D4B
:101100008D31182D8D31352D8D313C2D8D31402D6A
:10169000B501B50A0800280013140800163021000F
:1016A00097000800640080010131890B532B00343E
:1016B0003F3020009E009D01911004309F000800E3
:1016C000403032009100F230920046309300E0301A
:1016D00094002030950019309600080024009401F1
:1016E0002630950096019701FE30930020005308A4
:1016F000240092002000911121009115080004306F
:101700003E00910092010130930094009500023058
:101710009600A8309700980099009530900020001E
:101720001310210013140800911124001108F9006E
:10173000141DA12B941A161F9F2B0330A92B0130C7
:10174000A92B941AA52B0030A92B79082000E800BA
:1017500002308C31072424001516080013122100D2
:101760002908F1002808F000C2238B31B72B210093
:10177000260827040319080027088A0026080A00FB
:101780008B3108002800131DCC2B13107108920018
:1017900070089100131408007108920070089100FD
:1017A000080022008C018D018E01373021008C0051
:1017B000D0308D00FF308E0023008E0120308D0050
:1017C0008C01103024008D003F308C008E012500EC
:1017D0008C0120308D008E013C002008E0390E384D
:1017E000A0002108E0390F38A1002908E03911389C
:1017F000A9002808E0391038A8003D001F08E0398A
:1018000019389F001E08E03918389E000800F800BB
:101810003D2C2100B301B30A080020006808BB007A
:10182000232C20006808F6003B0848248C31200057
:10183000BB0A232C21003308003A0319112C013A6A
:1018400003190D2C112C2100B301080020003B08C6
:1018500087312127240091002000BB0A08002000C6
:101860003A0B382CE3278C31E5278C312000BA0164
:10187000390B0800E827B901080078088400043013
:1018800004020318080088310435683E820008000D
:10189000F700D62C7608FD0052278C319C268C311F
:1018A000E02C7608FC0006258C31E02C7608D00070
:1018B00092258C31E02C4008031DE02C7608CF00E7
:1018C00018268C31E02C7608D100E02C7608AF0089
:1018D000E02C7608AE00E02C7608AD00E02C76080F
:1018E000AC00E02C7608AB00E02C7608AA00E02CD7
:1018F0007608A900E02C7608A800E02C7608A7005E
:10190000E02C7608A600E02C7608A500E02C7608EE
:10191000A400E02C7608A300E02C7608A200E02CBE
:101920007608A100E02C7608A000E02C7608CC0018
:10193000E02C7608CB00E02C7608CA00E02C760874
:10194000C90091278C31E02C7608C800A2278C3181
:10195000E02C4008031DE02C7608C700B3278C312B
:10196000E02C7608C6004608F0000A30F101F200CB
:10197000F301F1248C317108B1007008B000E02C43
:101980007608C5004508F0000A30F101F200F301C5
:10199000F1248C3171082100A5007008A400E02C0E
:1019A0007608C400E02C7608C300E02C7708840099
:1019B000223004020318E02C873104359E3E820059
:1019C00080307702031C080020004108031DED2C25
:1019D0007608F0007708803EC72F7608F000770879
:1019E000C72FF401F501701CF92C7208F407730875
:1019F000F53DF235F30DF136F00C70087104031D5E
:101A0000F32C7508F1007408F00008002C0099010F
:101A100055303C008F00AA308F000F10E0303D00A1
:101A2000A70555303C008F00AA308F000F14452DBC
:101A300023008E1322008E1721008E1355303C0098
:101A40008F00AA308F000F103D002708E0390238C0
:101A5000A70055303C008F00AA308F000F1470256E
:101A60008C3100307A258C315E2D23008E132100BD
:101A70008E1325008E135E2D21008E172300432D1B
:101A800023008E1321008E175E2D7C080339F2008F
:101A9000F3017308003A03194E2D5E2D720884007D
:101AA0000430040203185E2D88310435803E820024
:101AB00024008E13080024008E1708007C080439C7
:101AC000F200F3017308003A0319672D6F2D7208B5
:101AD000003A0319582D043A03195B2D6F2D0800A5
:101AE00090302C009900980197011F08FC390138AB
:101AF0009F000800F100F000F036F03670083F3922
:101B0000980071080339F000F00CF00C700CC0392B
:101B100097007108031D8F2D21008E1708002100EA
:101B20008E1308002600970155303C008F00AA3024
:101B30008F000F10E0303D00A60555303C008F00AF
:101B4000AA308F000F14D12D23000E1322000E1780
:101B500021000E1355303C008F00AA308F000F106B
:101B60003D002608E0390F38A60055303C008F00B4
:101B7000AA308F000F14FE258C3100300A268C31DC
:101B8000EB2D23000E1321000E1325000E13EB2D59
:101B900021000E172300CF2D23000E1321000E1756
:101BA000EB2D200050080339F100F2017208003AD1
:101BB0000319DB2DEB2D7108840004300402031897
:101BC000EB2D88310435783E820024000E13080086
:101BD00024000E170800200050080439F100F2011B
:101BE0007208003A0319F52DFD2D7108003A03190A
:101BF000E52D043A0319E82DFD2D08008F3026004D
:101C000097009601FF30950025001F083F394038A6
:101C10009F000800F00026009601700995007008EA
:101C2000031D152E21000E17080021000E130800B9
:101C30002500930155303C008F00AA308F000F1013
:101C4000E0303D00A50555303C008F00AA308F00E4
:101C50000F14572E23008E1222008E1621008E1292
:101C600055303C008F00AA308F000F103D00250832
:101C7000E0390C38A50055303C008F00AA308F00A9
:101C80000F1484268C3100308F268C31712E230066
:101C90008E1221008E1225008E12712E21008E16BA
:101CA0002300552E23008E1221008E16712E200047
:101CB0004F080339F100F2017208003A0319612E4E
:101CC000712E71088400043004020318712E8831CB
:101CD0000435703E820024008E12080024008E1607
:101CE000080020004F080439F100F2017208003AA0
:101CF00003197B2E832E7108003A03196B2E043AC8
:101D000003196E2E832E08008F3025009300920158
:101D1000FF3091001F08FC3901389F000800F000D7
:101D20009201700991007008031D992E21008E16F2
:101D3000080021008E120800400BA12E03278C31D1
:101D4000A32E3B278C312100340BBA2E55303C009A
:101D50008F00AA308F000F102908E0391138A90030
:101D60002808E0391038A80055308F00AA308F00BD
:101D70000F14CD2E55303C008F00AA308F000F106D
:101D80002908E0391038A9002808E0391138A800DE
:101D900055308F00AA308F000F1420003E0BD32E39
:101DA00024008D12D52E24008D1622008D162000C1
:101DB0003F0BDF2E1310210013109D30E32E131064
:101DC0002100131095303E009000210013142000D4
:101DD0009310210093103E009A00210093142000DC
:101DE0003C08031DF92E0130A000A101A201A301AE
:101DF000FF2E3F30A3008030A200A101A001420BC2
:101E000008000100080023008E1125008E11240017
:101E10008E1121008E1123000E1225000E122400B7
:101E20000E1221000E1223008E1225008E122100A8
:101E30008E1255303C008F00AA308F000F103D00ED
:101E40002508E0390C38A5002408E0390D38A40035
:101E50002308E0390E38A30055303C008F00AA302B
:101E60008F000F1423000E1121000E1584268C31D3
:101E7000EA278C31F42F23000E1224000E162100C5
:101E80000E1623008E1125008E1121008E112200C6
:101E90008E11250097012600930123000E112100C9
:101EA0000E1508007D08BC000130BC057D36BD0064
:101EB0000130BD057D08F000F036F03670082100D5
:101EC000B4000130B4057D08F000F036F036F0368D
:101ED00070082000BE000130BE057D0E0F39BF0026
:101EE0000130BF057D08F0000530F036890B752FF5
:101EF0007008C0000130C0057D08F0000630F036E3
:101F0000890B7F2F7008C1000130C1057D08F000EA
:101F10000730F036890B892F7008C2000130C205E6
:101F2000080003307C05F000700B08004908031D11
:101F30009C2F22008E13080022008E1701302000F3
:101F4000C900080003305005F000700B0800480875
:101F5000031DAD2F22000E13080022000E170130C2
:101F60002000C8000800400BB62F080003304F05C2
:101F7000F000700B08004708031DC12F22008E12CD
:101F8000080022008E1601302000C7000800F10072
:101F900031009518C82F1517710891007030920004
:101FA00094017008930003108B1B03148B131515F9
:101FB00055309600AA30960095149518DD2F15110E
:101FC00003188B170800D201080022008D160800A4
:101FD000CE0108008F3097009601FF3095001F0852
:101FE000F33904389F0008008F30260093009201D7
:101FF000FF30910025001F08CF3910389F000800DE
:020000040001F9
:08000E008CFFF2F7FFDFFFFF9A
:00000001FF
